{"abi":[{"type":"function","name":"AAVEe","inputs":[],"outputs":[{"name":"","type":"IERC20","internalType":"contract IERC20"}],"stateMutability":"view"},{"type":"function","name":"ALPHAe","inputs":[],"outputs":[{"name":"","type":"IERC20","internalType":"contract IERC20"}],"stateMutability":"view"},{"type":"function","name":"ANY","inputs":[],"outputs":[{"name":"","type":"IERC20","internalType":"contract IERC20"}],"stateMutability":"view"},{"type":"function","name":"BATe","inputs":[],"outputs":[{"name":"","type":"IERC20","internalType":"contract IERC20"}],"stateMutability":"view"},{"type":"function","name":"BIFI","inputs":[],"outputs":[{"name":"","type":"IERC20","internalType":"contract IERC20"}],"stateMutability":"view"},{"type":"function","name":"BOBA","inputs":[],"outputs":[{"name":"","type":"IERC20","internalType":"contract IERC20"}],"stateMutability":"view"},{"type":"function","name":"BTCb","inputs":[],"outputs":[{"name":"","type":"IERC20","internalType":"contract IERC20"}],"stateMutability":"view"},{"type":"function","name":"BUSD","inputs":[],"outputs":[{"name":"","type":"IERC20","internalType":"contract IERC20"}],"stateMutability":"view"},{"type":"function","name":"BUSDe","inputs":[],"outputs":[{"name":"","type":"IERC20","internalType":"contract IERC20"}],"stateMutability":"view"},{"type":"function","name":"COMPe","inputs":[],"outputs":[{"name":"","type":"IERC20","internalType":"contract IERC20"}],"stateMutability":"view"},{"type":"function","name":"CRVe","inputs":[],"outputs":[{"name":"","type":"IERC20","internalType":"contract IERC20"}],"stateMutability":"view"},{"type":"function","name":"DAIe","inputs":[],"outputs":[{"name":"","type":"IERC20","internalType":"contract IERC20"}],"stateMutability":"view"},{"type":"function","name":"ETHM","inputs":[],"outputs":[{"name":"","type":"IERC20","internalType":"contract IERC20"}],"stateMutability":"view"},{"type":"function","name":"FRAX","inputs":[],"outputs":[{"name":"","type":"IERC20","internalType":"contract IERC20"}],"stateMutability":"view"},{"type":"function","name":"FXS","inputs":[],"outputs":[{"name":"","type":"IERC20","internalType":"contract IERC20"}],"stateMutability":"view"},{"type":"function","name":"GRTe","inputs":[],"outputs":[{"name":"","type":"IERC20","internalType":"contract IERC20"}],"stateMutability":"view"},{"type":"function","name":"JADE","inputs":[],"outputs":[{"name":"","type":"IERC20","internalType":"contract IERC20"}],"stateMutability":"view"},{"type":"function","name":"JOE","inputs":[],"outputs":[{"name":"","type":"IERC20","internalType":"contract IERC20"}],"stateMutability":"view"},{"type":"function","name":"KNC","inputs":[],"outputs":[{"name":"","type":"IERC20","internalType":"contract IERC20"}],"stateMutability":"view"},{"type":"function","name":"LINKe","inputs":[],"outputs":[{"name":"","type":"IERC20","internalType":"contract IERC20"}],"stateMutability":"view"},{"type":"function","name":"MKRe","inputs":[],"outputs":[{"name":"","type":"IERC20","internalType":"contract IERC20"}],"stateMutability":"view"},{"type":"function","name":"NATIVE_ASSET","inputs":[],"outputs":[{"name":"","type":"IERC20","internalType":"contract IERC20"}],"stateMutability":"view"},{"type":"function","name":"ONEINCHe","inputs":[],"outputs":[{"name":"","type":"IERC20","internalType":"contract IERC20"}],"stateMutability":"view"},{"type":"function","name":"ORBS","inputs":[],"outputs":[{"name":"","type":"IERC20","internalType":"contract IERC20"}],"stateMutability":"view"},{"type":"function","name":"PENDLE","inputs":[],"outputs":[{"name":"","type":"IERC20","internalType":"contract IERC20"}],"stateMutability":"view"},{"type":"function","name":"QI","inputs":[],"outputs":[{"name":"","type":"IERC20","internalType":"contract IERC20"}],"stateMutability":"view"},{"type":"function","name":"RISE","inputs":[],"outputs":[{"name":"","type":"IERC20","internalType":"contract IERC20"}],"stateMutability":"view"},{"type":"function","name":"SHIBe","inputs":[],"outputs":[{"name":"","type":"IERC20","internalType":"contract IERC20"}],"stateMutability":"view"},{"type":"function","name":"SNXe","inputs":[],"outputs":[{"name":"","type":"IERC20","internalType":"contract IERC20"}],"stateMutability":"view"},{"type":"function","name":"SPELL","inputs":[],"outputs":[{"name":"","type":"IERC20","internalType":"contract IERC20"}],"stateMutability":"view"},{"type":"function","name":"STG","inputs":[],"outputs":[{"name":"","type":"IERC20","internalType":"contract IERC20"}],"stateMutability":"view"},{"type":"function","name":"SURE","inputs":[],"outputs":[{"name":"","type":"IERC20","internalType":"contract IERC20"}],"stateMutability":"view"},{"type":"function","name":"SUSHIe","inputs":[],"outputs":[{"name":"","type":"IERC20","internalType":"contract IERC20"}],"stateMutability":"view"},{"type":"function","name":"SWAPe","inputs":[],"outputs":[{"name":"","type":"IERC20","internalType":"contract IERC20"}],"stateMutability":"view"},{"type":"function","name":"SYN","inputs":[],"outputs":[{"name":"","type":"IERC20","internalType":"contract IERC20"}],"stateMutability":"view"},{"type":"function","name":"TUSD","inputs":[],"outputs":[{"name":"","type":"IERC20","internalType":"contract IERC20"}],"stateMutability":"view"},{"type":"function","name":"UMAe","inputs":[],"outputs":[{"name":"","type":"IERC20","internalType":"contract IERC20"}],"stateMutability":"view"},{"type":"function","name":"UNCX","inputs":[],"outputs":[{"name":"","type":"IERC20","internalType":"contract IERC20"}],"stateMutability":"view"},{"type":"function","name":"UNIe","inputs":[],"outputs":[{"name":"","type":"IERC20","internalType":"contract IERC20"}],"stateMutability":"view"},{"type":"function","name":"USDC","inputs":[],"outputs":[{"name":"","type":"IERC20","internalType":"contract IERC20"}],"stateMutability":"view"},{"type":"function","name":"USDCe","inputs":[],"outputs":[{"name":"","type":"IERC20","internalType":"contract IERC20"}],"stateMutability":"view"},{"type":"function","name":"USDD","inputs":[],"outputs":[{"name":"","type":"IERC20","internalType":"contract IERC20"}],"stateMutability":"view"},{"type":"function","name":"USDTe","inputs":[],"outputs":[{"name":"","type":"IERC20","internalType":"contract IERC20"}],"stateMutability":"view"},{"type":"function","name":"USDt","inputs":[],"outputs":[{"name":"","type":"IERC20","internalType":"contract IERC20"}],"stateMutability":"view"},{"type":"function","name":"WALBT","inputs":[],"outputs":[{"name":"","type":"IERC20","internalType":"contract IERC20"}],"stateMutability":"view"},{"type":"function","name":"WAVAX","inputs":[],"outputs":[{"name":"","type":"IERC20","internalType":"contract IERC20"}],"stateMutability":"view"},{"type":"function","name":"WBTCe","inputs":[],"outputs":[{"name":"","type":"IERC20","internalType":"contract IERC20"}],"stateMutability":"view"},{"type":"function","name":"YFIe","inputs":[],"outputs":[{"name":"","type":"IERC20","internalType":"contract IERC20"}],"stateMutability":"view"},{"type":"function","name":"ZRXe","inputs":[],"outputs":[{"name":"","type":"IERC20","internalType":"contract IERC20"}],"stateMutability":"view"},{"type":"function","name":"sJADE","inputs":[],"outputs":[{"name":"","type":"IERC20","internalType":"contract IERC20"}],"stateMutability":"view"},{"type":"function","name":"xJOE","inputs":[],"outputs":[{"name":"","type":"IERC20","internalType":"contract IERC20"}],"stateMutability":"view"}],"bytecode":{"object":"0x6108a061003a600b82828239805160001a60731461002d57634e487b7160e01b600052600060045260246000fd5b30600052607381538281f3fe73000000000000000000000000000000000000000030146080604052600436106102fb5760003560e01c80638db12960116101a7578063e50b4bb6116100f3578063eeba494f116100ac578063f61cb3c111610086578063f61cb3c1146107fe578063ff457b9b14610819578063ff47770b14610834578063ffebad301461084f57600080fd5b8063eeba494f146107ad578063eede27b6146107c8578063f5670622146107e357600080fd5b8063e50b4bb61461070b578063e7995b2e14610726578063e94e599b14610741578063e992d8d81461075c578063eaf2d6ef14610777578063ecebc29c1461079257600080fd5b8063b2022b7d11610160578063bef56a791161013a578063bef56a79146106b2578063bf53253b146106cd578063c2b28f32146106d5578063d2500033146106f057600080fd5b8063b2022b7d14610661578063b70b23a31461067c578063b878b86c1461069757600080fd5b80638db12960146105bf57806392771129146105da5780639b22f25c146105f55780639df3fe2414610610578063a8542f661461062b578063b0e4556f1461064657600080fd5b80634c16e9731161026657806373b295c21161021f5780638323550b116101f95780638323550b14610553578063857a887d1461056e57806389a30271146105895780638a4d786b146105a457600080fd5b806373b295c214610502578063766367221461051d5780637cf738d21461053857600080fd5b80634c16e973146104605780635d5f36941461047b5780635f22f53f14610496578063600b6192146104b157806362d1ade2146104cc57806364d38cff146104e757600080fd5b806322e1db6e116102b857806322e1db6e146103be5780632c1ace93146103d9578063305fe441146103f457806332c8ffa31461040f5780634046fe0e1461042a578063484f4ea91461044557600080fd5b8063010e47281461030057806303cfe5e8146103375780630c9342b314610352578063192e3ff01461036d5780631933f9d314610388578063200ea222146103a3575b600080fd5b61031b739e037de681cafa6e661e6108ed9c2bd1aa567ecd81565b6040516001600160a01b03909116815260200160405180910390f35b61031b7337b608519f91f70f2eeb0e5ed9af4061722e4f7681565b61031b7357319d41f71e81f3c65f2a47ca4e001ebafd4f3381565b61031b7302d980a0d7af3fb7cf7df8cb35d9edbcf355f66581565b61031b733cd790449cf7d187a143d4bd7f4654d4f2403e0281565b61031b73214db107654ff987ad859f34125307783fc8e38781565b61031b7355b1a124c04a54eefdefe5fa2ef5f852fb5f2f2681565b61031b733d9eab723df76808bb84c05b20de27a2e69ef29381565b61031b738a0cac13c7da965a312f08ea4229c37869e85cb981565b61031b73cf799767d366d789e8b446981c2d578e241fa25c81565b61031b735fc17416925789e0852fbfcd81c490ca4abc51f981565b61031b739c9e5fd8bbc25984b178fdce6117defa39d2db3981565b61031b732f6f07cdcf3588944bf4c42ac74ff24bf56e759081565b61031b73c7b5d72c836e718cda8888eaf03707faef67507981565b61031b738729438eb15e2c8b576fcc6aecda6a148776c0f581565b61031b73c3048e19e76cb9a3aa9d77d8c03c29fc906e243781565b61031b73152b9d0fdc40c096757f570a51e494bd4b943e5081565b61031b73596fa47043f99a4e0f122243b841e55375cde0d281565b61031b73b31f66aa3c1e785363f0875a1b74e27b85fd66c781565b61031b73ce1bffbd5374dac86a2893119683f4911a2f781481565b61031b73fb98b335551a418cd0737375a2ea0ded62ea213b81565b61031b731c20e891bab6b1727d14da358fae2984ed9b59eb81565b61031b738ebaf22b6f053dffeaf46f4dd9efa95d89ba858081565b61031b73b97ef9ef8734c71904d8002f8b6bc66dd9c48a6e81565b61031b73a7d7079b0fead91f3e65f86e8915cb59c1a4c66481565b61031b7388128fd4b259552a9a1d457f435a6527aab72d4281565b61031b739eaac1b23d935365bd7b542fe22ceee2922f52dc81565b61031b7398443b96ea4b0858fdf3219cd13e98c7a469058881565b61031b73d586e7f844cea2f87f50152665bcbc2c279d8d7081565b61031b73b44a9b6905af7c801311e8f4e76932ee959c663c81565b61031b73d24c2ad096400b6fbcd2ad8b24e7acbc21a1da6481565b61031b73249848beca43ac405b8102ec90dd5f22ca513c0681565b61031b73c7198437980c041c805a1edcba50c1ce5db9511881565b61031b731f1e7c893855525b303f99bdf5c3c05be09ca25181565b61031b735947bb275c521040051d82396192181b413227a381565b61031b600081565b61031b7319860ccb0a68fd4213ab9d8266f7bbf05a8dde9881565b61031b73c17c30e98541188614df99239cabd40280810ca381565b61031b73bec243c995409e6520d7c41e404da5deba4b209b81565b61031b73340fe1d898eccaad394e2ba0fc1f93d27c7b717a81565b61031b7380b010450fdaf6a3f8df033ee296e92751d603b381565b61031b7339fc9e94caeacb435842fadedecb783589f50f5f81565b61031b732147efff675e4a4ee1c2f918d181cdbd7a8e208f81565b61031b73d6070ae98b8069de6b494332d1a1a81b6179d96081565b61031b73d501281565bf7789224523144fe5d98e8b28f26781565b61031b739702230a8ea53601f5cd2dc00fdbc13d4df4a8c781565b61031b7363a72806098bd3d9520cc43356dd78afe5d386d981565b61031b7350b7545627a5162f82a992c33b87adc75187b21881565b61031b733bd2b1c7ed8d396dbb98ded3aebb41350a5b233981565b61031b733b9e3b5c616a1a038fdc190758bbe9bab6c7a85781565b61031b736e84a6216ea6dacc71ee8e6b0a5b7322eebc0fdd8156fea264697066735822122017dd5930e47b3c370cf5520caae0ba41d2db7216fa9f787ee0e9f1c97dbdc17164736f6c63430008180033","linkReferences":{}},"methodIdentifiers":{"AAVEe()":"f5670622","ALPHAe()":"eaf2d6ef","ANY()":"a8542f66","BATe()":"9b22f25c","BIFI()":"ecebc29c","BOBA()":"1933f9d3","BTCb()":"62d1ade2","BUSD()":"484f4ea9","BUSDe()":"c2b28f32","COMPe()":"600b6192","CRVe()":"b2022b7d","DAIe()":"9df3fe24","ETHM()":"22e1db6e","FRAX()":"b0e4556f","FXS()":"200ea222","GRTe()":"305fe441","JADE()":"e94e599b","JOE()":"ffebad30","KNC()":"e992d8d8","LINKe()":"bef56a79","MKRe()":"8db12960","NATIVE_ASSET()":"bf53253b","ONEINCHe()":"eeba494f","ORBS()":"e7995b2e","PENDLE()":"7cf738d2","QI()":"5f22f53f","RISE()":"d2500033","SHIBe()":"192e3ff0","SNXe()":"e50b4bb6","SPELL()":"76636722","STG()":"4c16e973","SURE()":"4046fe0e","SUSHIe()":"03cfe5e8","SWAPe()":"5d5f3694","SYN()":"b878b86c","TUSD()":"8323550b","UMAe()":"ff457b9b","UNCX()":"ff47770b","UNIe()":"857a887d","USDC()":"89a30271","USDCe()":"8a4d786b","USDD()":"32c8ffa3","USDTe()":"b70b23a3","USDt()":"eede27b6","WALBT()":"010e4728","WAVAX()":"73b295c2","WBTCe()":"f61cb3c1","YFIe()":"92771129","ZRXe()":"64d38cff","sJADE()":"2c1ace93","xJOE()":"0c9342b3"},"id":2}