{"abi":[{"type":"function","name":"ADA","inputs":[],"outputs":[{"name":"","type":"IERC20","internalType":"contract IERC20"}],"stateMutability":"view"},{"type":"function","name":"ATOM","inputs":[],"outputs":[{"name":"","type":"IERC20","internalType":"contract IERC20"}],"stateMutability":"view"},{"type":"function","name":"AVAX","inputs":[],"outputs":[{"name":"","type":"IERC20","internalType":"contract IERC20"}],"stateMutability":"view"},{"type":"function","name":"AXS","inputs":[],"outputs":[{"name":"","type":"IERC20","internalType":"contract IERC20"}],"stateMutability":"view"},{"type":"function","name":"BAT","inputs":[],"outputs":[{"name":"","type":"IERC20","internalType":"contract IERC20"}],"stateMutability":"view"},{"type":"function","name":"BCH","inputs":[],"outputs":[{"name":"","type":"IERC20","internalType":"contract IERC20"}],"stateMutability":"view"},{"type":"function","name":"BSCUSD","inputs":[],"outputs":[{"name":"","type":"IERC20","internalType":"contract IERC20"}],"stateMutability":"view"},{"type":"function","name":"BTCB","inputs":[],"outputs":[{"name":"","type":"IERC20","internalType":"contract IERC20"}],"stateMutability":"view"},{"type":"function","name":"BTT","inputs":[],"outputs":[{"name":"","type":"IERC20","internalType":"contract IERC20"}],"stateMutability":"view"},{"type":"function","name":"BTTp","inputs":[],"outputs":[{"name":"","type":"IERC20","internalType":"contract IERC20"}],"stateMutability":"view"},{"type":"function","name":"BUSD","inputs":[],"outputs":[{"name":"","type":"IERC20","internalType":"contract IERC20"}],"stateMutability":"view"},{"type":"function","name":"COMP","inputs":[],"outputs":[{"name":"","type":"IERC20","internalType":"contract IERC20"}],"stateMutability":"view"},{"type":"function","name":"DAI","inputs":[],"outputs":[{"name":"","type":"IERC20","internalType":"contract IERC20"}],"stateMutability":"view"},{"type":"function","name":"DOGE","inputs":[],"outputs":[{"name":"","type":"IERC20","internalType":"contract IERC20"}],"stateMutability":"view"},{"type":"function","name":"DOT","inputs":[],"outputs":[{"name":"","type":"IERC20","internalType":"contract IERC20"}],"stateMutability":"view"},{"type":"function","name":"EGLD","inputs":[],"outputs":[{"name":"","type":"IERC20","internalType":"contract IERC20"}],"stateMutability":"view"},{"type":"function","name":"EOS","inputs":[],"outputs":[{"name":"","type":"IERC20","internalType":"contract IERC20"}],"stateMutability":"view"},{"type":"function","name":"ETC","inputs":[],"outputs":[{"name":"","type":"IERC20","internalType":"contract IERC20"}],"stateMutability":"view"},{"type":"function","name":"ETH","inputs":[],"outputs":[{"name":"","type":"IERC20","internalType":"contract IERC20"}],"stateMutability":"view"},{"type":"function","name":"ETHW","inputs":[],"outputs":[{"name":"","type":"IERC20","internalType":"contract IERC20"}],"stateMutability":"view"},{"type":"function","name":"FLOW","inputs":[],"outputs":[{"name":"","type":"IERC20","internalType":"contract IERC20"}],"stateMutability":"view"},{"type":"function","name":"FRAX","inputs":[],"outputs":[{"name":"","type":"IERC20","internalType":"contract IERC20"}],"stateMutability":"view"},{"type":"function","name":"FTM","inputs":[],"outputs":[{"name":"","type":"IERC20","internalType":"contract IERC20"}],"stateMutability":"view"},{"type":"function","name":"FXS","inputs":[],"outputs":[{"name":"","type":"IERC20","internalType":"contract IERC20"}],"stateMutability":"view"},{"type":"function","name":"GALA","inputs":[],"outputs":[{"name":"","type":"IERC20","internalType":"contract IERC20"}],"stateMutability":"view"},{"type":"function","name":"IOTA","inputs":[],"outputs":[{"name":"","type":"IERC20","internalType":"contract IERC20"}],"stateMutability":"view"},{"type":"function","name":"LINK","inputs":[],"outputs":[{"name":"","type":"IERC20","internalType":"contract IERC20"}],"stateMutability":"view"},{"type":"function","name":"LTC","inputs":[],"outputs":[{"name":"","type":"IERC20","internalType":"contract IERC20"}],"stateMutability":"view"},{"type":"function","name":"MATIC","inputs":[],"outputs":[{"name":"","type":"IERC20","internalType":"contract IERC20"}],"stateMutability":"view"},{"type":"function","name":"MKR","inputs":[],"outputs":[{"name":"","type":"IERC20","internalType":"contract IERC20"}],"stateMutability":"view"},{"type":"function","name":"NATIVE_ASSET","inputs":[],"outputs":[{"name":"","type":"IERC20","internalType":"contract IERC20"}],"stateMutability":"view"},{"type":"function","name":"NEAR","inputs":[],"outputs":[{"name":"","type":"IERC20","internalType":"contract IERC20"}],"stateMutability":"view"},{"type":"function","name":"ONEINCH","inputs":[],"outputs":[{"name":"","type":"IERC20","internalType":"contract IERC20"}],"stateMutability":"view"},{"type":"function","name":"PAX","inputs":[],"outputs":[{"name":"","type":"IERC20","internalType":"contract IERC20"}],"stateMutability":"view"},{"type":"function","name":"PAXG","inputs":[],"outputs":[{"name":"","type":"IERC20","internalType":"contract IERC20"}],"stateMutability":"view"},{"type":"function","name":"SHIB","inputs":[],"outputs":[{"name":"","type":"IERC20","internalType":"contract IERC20"}],"stateMutability":"view"},{"type":"function","name":"SNX","inputs":[],"outputs":[{"name":"","type":"IERC20","internalType":"contract IERC20"}],"stateMutability":"view"},{"type":"function","name":"TUSD","inputs":[],"outputs":[{"name":"","type":"IERC20","internalType":"contract IERC20"}],"stateMutability":"view"},{"type":"function","name":"TWT","inputs":[],"outputs":[{"name":"","type":"IERC20","internalType":"contract IERC20"}],"stateMutability":"view"},{"type":"function","name":"UNI","inputs":[],"outputs":[{"name":"","type":"IERC20","internalType":"contract IERC20"}],"stateMutability":"view"},{"type":"function","name":"USDC","inputs":[],"outputs":[{"name":"","type":"IERC20","internalType":"contract IERC20"}],"stateMutability":"view"},{"type":"function","name":"USDD","inputs":[],"outputs":[{"name":"","type":"IERC20","internalType":"contract IERC20"}],"stateMutability":"view"},{"type":"function","name":"USDP","inputs":[],"outputs":[{"name":"","type":"IERC20","internalType":"contract IERC20"}],"stateMutability":"view"},{"type":"function","name":"WBNB","inputs":[],"outputs":[{"name":"","type":"IERC20","internalType":"contract IERC20"}],"stateMutability":"view"},{"type":"function","name":"XCN","inputs":[],"outputs":[{"name":"","type":"IERC20","internalType":"contract IERC20"}],"stateMutability":"view"},{"type":"function","name":"XEC","inputs":[],"outputs":[{"name":"","type":"IERC20","internalType":"contract IERC20"}],"stateMutability":"view"},{"type":"function","name":"XRP","inputs":[],"outputs":[{"name":"","type":"IERC20","internalType":"contract IERC20"}],"stateMutability":"view"},{"type":"function","name":"XTZ","inputs":[],"outputs":[{"name":"","type":"IERC20","internalType":"contract IERC20"}],"stateMutability":"view"},{"type":"function","name":"ZEC","inputs":[],"outputs":[{"name":"","type":"IERC20","internalType":"contract IERC20"}],"stateMutability":"view"},{"type":"function","name":"ZIL","inputs":[],"outputs":[{"name":"","type":"IERC20","internalType":"contract IERC20"}],"stateMutability":"view"},{"type":"function","name":"anyUSDC","inputs":[],"outputs":[{"name":"","type":"IERC20","internalType":"contract IERC20"}],"stateMutability":"view"}],"bytecode":{"object":"0x6108a061003a600b82828239805160001a60731461002d57634e487b7160e01b600052600060045260246000fd5b30600052607381538281f3fe73000000000000000000000000000000000000000030146080604052600436106102fb5760003560e01c80637dcc78f8116101a7578063b6834572116100f3578063e24b85e7116100ac578063f0a5b51611610086578063f0a5b516146107fe578063fbec7a6914610819578063fc2544c314610834578063fc68caa61461084f57600080fd5b8063e24b85e7146107ad578063e8d6101e146107c8578063e9c9f44f146107e357600080fd5b8063b68345721461071e578063b71501bc14610739578063bf53253b14610754578063d597b6341461075c578063db09644d14610777578063e0bab4c41461079257600080fd5b80639c0770fe11610160578063b0c5f4341161013a578063b0c5f434146106b2578063b0e4556f146106cd578063b1520922146106e8578063b59f091e1461070357600080fd5b80639c0770fe146106615780639ca6da2e1461067c578063a5fcc8341461069757600080fd5b80637dcc78f8146105bf57806380126589146105da5780638322fff2146105f55780638323550b1461061057806389a302711461062b5780638dd950021461064657600080fd5b80633af2681f116102665780635b7ab8911161021f5780636a2ce8a5116101f95780636a2ce8a5146105535780636f8746b61461056e57806371e307191461058957806377a7e77d146105a457600080fd5b80635b7ab891146105025780635fd1af561461051d57806360d3faa11461053857600080fd5b80633af2681f146104605780633d31a4af1461047b578063484f4ea914610496578063541bcb76146104b157806355cef65f146104cc57806358919155146104e757600080fd5b8063236e4f23116102b8578063236e4f23146103be5780633189097b146103d9578063327c9bdb146103f457806332980e431461040f57806332c8ffa31461042a57806336e029501461044557600080fd5b806301bb43ad1461030057806314dcdba81461033757806315b550d6146103525780631b6b6d231461036d578063200ea22214610388578063231f7cdb146103a3575b600080fd5b61031b730ef2e7602add1733bfdb17ac3094d0421b502ca381565b6040516001600160a01b03909116815260200160405180910390f35b61031b7355d398326f99059ff775485246999027b319795581565b61031b73cc42724c6683b7e57334c4e856f4c9965ed682bd81565b61031b73f8a0bf9cf54bb92f17374d9e9a321e6a111a51bd81565b61031b73e48a3d7d0bc88d552f730b62c006bc925eadb9ee81565b61031b738595f9da7b868b1822194faed312235e43007b4981565b61031b733ee2200efb3400fabb9aacf31297cbdd1d435d4781565b61031b73c943c5320b9c18c153d1e2d12cc3074bebfb31a281565b61031b737ddee176f665cd201f93eede625770e2fd91199081565b61031b731fa4a73a3f0133f0025378af00236f3abdee5d6381565b61031b73d17479997f34dd9156deef8f95a52d81d265be9c81565b61031b737083609fce4d1d8dc0c979aab8c869ea2c87340281565b61031b731d2f0da169ceb9fc7b3144628db156f3f6c60dbe81565b61031b735f0da599bb2cccfcf6fdfd7d81743b602086435081565b61031b73e9e7cea3dedca5984780bafc599bd69add087d5681565b61031b73bf5140a22578168fd562dccf235e5d43a02ce9b181565b61031b737324c7c0d95cebc73eea7e85cbaac0dbdf88a05b81565b61031b73ba2ae424d960c26247dd6c32edc70b295c744c4381565b61031b73101d82428437127bf1608f699cd651e6abf9766e81565b61031b738ff795a6f4d97e7887c79bea79aba5cc76444adf81565b61031b73bf7c81fff98bbe61b40ed186e4afd6ddd01337fe81565b61031b73352cb5e19b12fc216548a2677bd0fce83bae434b81565b61031b73b7f8cd00c5a06c0537e2abff0b58033d02e5e09481565b61031b731ba42e5193dfa8b03d15dd1b86a3113bbbef8eeb81565b61031b73ad29abb318791d579433d831ed122afeaf29dcfe81565b61031b734338665cbb7b2485a8855a139b75d5e34ab0db9481565b61031b73715d400f88c167884bbcc41c5fea407ed4d2f8a081565b61031b732170ed0880ac9a755fd29b2688956bd959f933f881565b61031b7314016e85a25aeb13065688cafb43044c2ef8678481565b61031b738ac76a51cc950d9822d68b83fe1ad97b32cd580d81565b61031b73bb4cdb9cbd36b01bd1cbaebf2de08d9173bc095c81565b61031b73b86abcb37c3a4b64f74f59301aff131a1becc78781565b61031b737950865a9140cb519342433146ed5b40c6f210f781565b61031b734b0f1812e5df2a09796481ff14017e600550800381565b61031b73d944f1d1e9d5f9bb90b62f9d45e447d98958078281565b61031b7390c97f71e18723b0cf0dfa30ee176ab653e89f4081565b61031b73b3c11196a4f3b1da7c23d9fb0a3dde9c6340934f81565b61031b731ce0c2827e2ef14d5c4f29a091d735a20479404181565b61031b7356b6fb708fc5732dec1afc8d8556423a2edccbd681565b61031b7352ce071bd9b1c4b00a0b92d298c512478cad67e881565b61031b600081565b61031b733d6545b08693dae087e957cb1180ee38b9e3c25e81565b61031b73111111111117dc0aa78b770fa6a738034120c30281565b61031b731af3f329e8be154074d8769d1ffa4ee058b1dbc381565b61031b732859e4544c4bb03966803b044a93563bd2d0dd4d81565b61031b739ac983826058b8a9c7aa1c9171441191232e840481565b61031b737130d2a12b9bcbfae4f2634d864a1ee1ce3ead9c81565b61031b730eb3a705fc54725037cc9e008bdede697f62f33581565b61031b738965349fb649a33a30cbfda057d8ec2c48abe2a281565b61031b7316939ef78684453bfdfb47825f8a5f714f12623a81565b61031b73302cd8973be5ca2334b4ff7e7b01ba41455559b38156fea26469706673582212206591da56206df3b9718cd24ec7a61f4d6bebd621948fac3bcea4ab6da85957b464736f6c63430008180033","linkReferences":{}},"methodIdentifiers":{"ADA()":"236e4f23","ATOM()":"f0a5b516","AVAX()":"b59f091e","AXS()":"80126589","BAT()":"5b7ab891","BCH()":"5fd1af56","BSCUSD()":"14dcdba8","BTCB()":"e9c9f44f","BTT()":"6a2ce8a5","BTTp()":"231f7cdb","BUSD()":"484f4ea9","COMP()":"b71501bc","DAI()":"e0bab4c4","DOGE()":"58919155","DOT()":"36e02950","EGLD()":"60d3faa1","EOS()":"b6834572","ETC()":"d597b634","ETH()":"8322fff2","ETHW()":"fc68caa6","FLOW()":"3189097b","FRAX()":"b0e4556f","FTM()":"77a7e77d","FXS()":"200ea222","GALA()":"327c9bdb","IOTA()":"b0c5f434","LINK()":"1b6b6d23","LTC()":"7dcc78f8","MATIC()":"15b550d6","MKR()":"3d31a4af","NATIVE_ASSET()":"bf53253b","NEAR()":"32980e43","ONEINCH()":"db09644d","PAX()":"6f8746b6","PAXG()":"9ca6da2e","SHIB()":"e24b85e7","SNX()":"e8d6101e","TUSD()":"8323550b","TWT()":"a5fcc834","UNI()":"541bcb76","USDC()":"89a30271","USDD()":"32c8ffa3","USDP()":"b1520922","WBNB()":"8dd95002","XCN()":"55cef65f","XEC()":"01bb43ad","XRP()":"3af2681f","XTZ()":"fc2544c3","ZEC()":"71e30719","ZIL()":"9c0770fe","anyUSDC()":"fbec7a69"},"id":2}