{"abi":[{"type":"function","name":"APE","inputs":[],"outputs":[{"name":"","type":"IERC20","internalType":"contract IERC20"}],"stateMutability":"view"},{"type":"function","name":"BIT","inputs":[],"outputs":[{"name":"","type":"IERC20","internalType":"contract IERC20"}],"stateMutability":"view"},{"type":"function","name":"BNB","inputs":[],"outputs":[{"name":"","type":"IERC20","internalType":"contract IERC20"}],"stateMutability":"view"},{"type":"function","name":"BTT","inputs":[],"outputs":[{"name":"","type":"IERC20","internalType":"contract IERC20"}],"stateMutability":"view"},{"type":"function","name":"BUSD","inputs":[],"outputs":[{"name":"","type":"IERC20","internalType":"contract IERC20"}],"stateMutability":"view"},{"type":"function","name":"CHZ","inputs":[],"outputs":[{"name":"","type":"IERC20","internalType":"contract IERC20"}],"stateMutability":"view"},{"type":"function","name":"CRO","inputs":[],"outputs":[{"name":"","type":"IERC20","internalType":"contract IERC20"}],"stateMutability":"view"},{"type":"function","name":"DAI","inputs":[],"outputs":[{"name":"","type":"IERC20","internalType":"contract IERC20"}],"stateMutability":"view"},{"type":"function","name":"ETH","inputs":[],"outputs":[{"name":"","type":"IERC20","internalType":"contract IERC20"}],"stateMutability":"view"},{"type":"function","name":"FRAX","inputs":[],"outputs":[{"name":"","type":"IERC20","internalType":"contract IERC20"}],"stateMutability":"view"},{"type":"function","name":"FTM","inputs":[],"outputs":[{"name":"","type":"IERC20","internalType":"contract IERC20"}],"stateMutability":"view"},{"type":"function","name":"FXS","inputs":[],"outputs":[{"name":"","type":"IERC20","internalType":"contract IERC20"}],"stateMutability":"view"},{"type":"function","name":"GRT","inputs":[],"outputs":[{"name":"","type":"IERC20","internalType":"contract IERC20"}],"stateMutability":"view"},{"type":"function","name":"GUSD","inputs":[],"outputs":[{"name":"","type":"IERC20","internalType":"contract IERC20"}],"stateMutability":"view"},{"type":"function","name":"HEX","inputs":[],"outputs":[{"name":"","type":"IERC20","internalType":"contract IERC20"}],"stateMutability":"view"},{"type":"function","name":"HT","inputs":[],"outputs":[{"name":"","type":"IERC20","internalType":"contract IERC20"}],"stateMutability":"view"},{"type":"function","name":"KCS","inputs":[],"outputs":[{"name":"","type":"IERC20","internalType":"contract IERC20"}],"stateMutability":"view"},{"type":"function","name":"LDO","inputs":[],"outputs":[{"name":"","type":"IERC20","internalType":"contract IERC20"}],"stateMutability":"view"},{"type":"function","name":"LEO","inputs":[],"outputs":[{"name":"","type":"IERC20","internalType":"contract IERC20"}],"stateMutability":"view"},{"type":"function","name":"LINK","inputs":[],"outputs":[{"name":"","type":"IERC20","internalType":"contract IERC20"}],"stateMutability":"view"},{"type":"function","name":"MATIC","inputs":[],"outputs":[{"name":"","type":"IERC20","internalType":"contract IERC20"}],"stateMutability":"view"},{"type":"function","name":"MKR","inputs":[],"outputs":[{"name":"","type":"IERC20","internalType":"contract IERC20"}],"stateMutability":"view"},{"type":"function","name":"NATIVE_ASSET","inputs":[],"outputs":[{"name":"","type":"IERC20","internalType":"contract IERC20"}],"stateMutability":"view"},{"type":"function","name":"NEAR","inputs":[],"outputs":[{"name":"","type":"IERC20","internalType":"contract IERC20"}],"stateMutability":"view"},{"type":"function","name":"NEXO","inputs":[],"outputs":[{"name":"","type":"IERC20","internalType":"contract IERC20"}],"stateMutability":"view"},{"type":"function","name":"OKB","inputs":[],"outputs":[{"name":"","type":"IERC20","internalType":"contract IERC20"}],"stateMutability":"view"},{"type":"function","name":"ONEINCH","inputs":[],"outputs":[{"name":"","type":"IERC20","internalType":"contract IERC20"}],"stateMutability":"view"},{"type":"function","name":"PAXG","inputs":[],"outputs":[{"name":"","type":"IERC20","internalType":"contract IERC20"}],"stateMutability":"view"},{"type":"function","name":"QNT","inputs":[],"outputs":[{"name":"","type":"IERC20","internalType":"contract IERC20"}],"stateMutability":"view"},{"type":"function","name":"SAND","inputs":[],"outputs":[{"name":"","type":"IERC20","internalType":"contract IERC20"}],"stateMutability":"view"},{"type":"function","name":"SHIB","inputs":[],"outputs":[{"name":"","type":"IERC20","internalType":"contract IERC20"}],"stateMutability":"view"},{"type":"function","name":"SNX","inputs":[],"outputs":[{"name":"","type":"IERC20","internalType":"contract IERC20"}],"stateMutability":"view"},{"type":"function","name":"THETA","inputs":[],"outputs":[{"name":"","type":"IERC20","internalType":"contract IERC20"}],"stateMutability":"view"},{"type":"function","name":"TUSD","inputs":[],"outputs":[{"name":"","type":"IERC20","internalType":"contract IERC20"}],"stateMutability":"view"},{"type":"function","name":"UNI","inputs":[],"outputs":[{"name":"","type":"IERC20","internalType":"contract IERC20"}],"stateMutability":"view"},{"type":"function","name":"USDC","inputs":[],"outputs":[{"name":"","type":"IERC20","internalType":"contract IERC20"}],"stateMutability":"view"},{"type":"function","name":"USDD","inputs":[],"outputs":[{"name":"","type":"IERC20","internalType":"contract IERC20"}],"stateMutability":"view"},{"type":"function","name":"USDP","inputs":[],"outputs":[{"name":"","type":"IERC20","internalType":"contract IERC20"}],"stateMutability":"view"},{"type":"function","name":"USDT","inputs":[],"outputs":[{"name":"","type":"IERC20","internalType":"contract IERC20"}],"stateMutability":"view"},{"type":"function","name":"VEN","inputs":[],"outputs":[{"name":"","type":"IERC20","internalType":"contract IERC20"}],"stateMutability":"view"},{"type":"function","name":"WBTC","inputs":[],"outputs":[{"name":"","type":"IERC20","internalType":"contract IERC20"}],"stateMutability":"view"},{"type":"function","name":"WETH","inputs":[],"outputs":[{"name":"","type":"IERC20","internalType":"contract IERC20"}],"stateMutability":"view"},{"type":"function","name":"XAUt","inputs":[],"outputs":[{"name":"","type":"IERC20","internalType":"contract IERC20"}],"stateMutability":"view"},{"type":"function","name":"XDCE","inputs":[],"outputs":[{"name":"","type":"IERC20","internalType":"contract IERC20"}],"stateMutability":"view"},{"type":"function","name":"ZIL","inputs":[],"outputs":[{"name":"","type":"IERC20","internalType":"contract IERC20"}],"stateMutability":"view"},{"type":"function","name":"aAAVE","inputs":[],"outputs":[{"name":"","type":"IERC20","internalType":"contract IERC20"}],"stateMutability":"view"},{"type":"function","name":"anyLTC","inputs":[],"outputs":[{"name":"","type":"IERC20","internalType":"contract IERC20"}],"stateMutability":"view"},{"type":"function","name":"cDAI","inputs":[],"outputs":[{"name":"","type":"IERC20","internalType":"contract IERC20"}],"stateMutability":"view"},{"type":"function","name":"cETH","inputs":[],"outputs":[{"name":"","type":"IERC20","internalType":"contract IERC20"}],"stateMutability":"view"},{"type":"function","name":"cUSDC","inputs":[],"outputs":[{"name":"","type":"IERC20","internalType":"contract IERC20"}],"stateMutability":"view"},{"type":"function","name":"stETH","inputs":[],"outputs":[{"name":"","type":"IERC20","internalType":"contract IERC20"}],"stateMutability":"view"},{"type":"function","name":"steCRV","inputs":[],"outputs":[{"name":"","type":"IERC20","internalType":"contract IERC20"}],"stateMutability":"view"},{"type":"function","name":"stkAAVE","inputs":[],"outputs":[{"name":"","type":"IERC20","internalType":"contract IERC20"}],"stateMutability":"view"},{"type":"function","name":"wMANA","inputs":[],"outputs":[{"name":"","type":"IERC20","internalType":"contract IERC20"}],"stateMutability":"view"},{"type":"function","name":"wstETH","inputs":[],"outputs":[{"name":"","type":"IERC20","internalType":"contract IERC20"}],"stateMutability":"view"}],"bytecode":{"object":"0x61097261003a600b82828239805160001a60731461002d57634e487b7160e01b600052600060045260246000fd5b30600052607381538281f3fe73000000000000000000000000000000000000000030146080604052600436106103665760003560e01c80638323550b116101dd578063bf53253b1161010e578063e0bab4c4116100ac578063e8d6101e11610086578063e8d6101e146108d0578063f514bf42146108eb578063f7375a8b14610906578063fc22290b1461092157600080fd5b8063e0bab4c41461087f578063e24b85e71461089a578063e497e88e146108b557600080fd5b8063ce347a3e116100e8578063ce347a3e14610813578063d88bba111461082e578063db09644d14610849578063dfb685cb1461086457600080fd5b8063bf53253b146107d5578063c1fe3e48146107dd578063c54e44eb146107f857600080fd5b8063a4aeacc81161017b578063b152092211610155578063b152092214610769578063bc356eea14610784578063be97a9801461079f578063bed81249146107ba57600080fd5b8063a4aeacc814610718578063ad5c464814610733578063b0e4556f1461074e57600080fd5b80638e416c93116101b75780638e416c93146106ac5780639c0770fe146106c75780639ca6da2e146106e2578063a1b4d011146106fd57600080fd5b80638323550b14610660578063834d4cd51461067657806389a302711461069157600080fd5b80633d31a4af116102b75780636275ecd811610255578063721361ca1161022f578063721361ca146105f457806377802e471461060f57806377a7e77d1461062a5780638322fff21461064557600080fd5b80636275ecd8146105a35780636a2ce8a5146105be5780636f6941b9146105d957600080fd5b80634aa07e64116102915780634aa07e64146105375780634dede3de14610552578063541bcb761461056d57806358f7f6d21461058857600080fd5b80633d31a4af146104e65780633eeddcc214610501578063484f4ea91461051c57600080fd5b80631fc29c01116103245780632f243a3b116102fe5780632f243a3b1461047a57806332980e431461049557806332c8ffa3146104b05780633975f691146104cb57600080fd5b80631fc29c0114610429578063200ea222146104445780632032afe41461045f57600080fd5b8062bbe4891461036b57806308190cda146103a257806315b550d6146103bd5780631b5d145d146103d85780631b6b6d23146103f35780631d5589661461040e575b600080fd5b61038673c944e90c64b2c07662a292be6244bdf05cda44a781565b6040516001600160a01b03909116815260200160405180910390f35b610386736f259637dcd74c767781e37bc6133cd6a68aa16181565b610386737d1afa7b718fb893db30a3abc0cfc608aacfebb081565b610386734d224452801aced8b2f0aebe155379bb5d59438181565b61038673514910771af9ca656af840dff83e8264ecf986ca81565b610386732b591e99afe9f32eaa6214f7b7629768c40eeb3981565b610386734da27a545c0c5b758a6ba100e3a049001de870f581565b610386733432b6a60d23ca0dfca7761b7ab56459d9c964d081565b610386733845badade8e6dff049820680d1f14bd3903a5d081565b6103867368749665ff8d2d112fa859aa293f07a622782f3881565b6103867385f17cf997934a597031b2e18a9ab6ebd4b9f6a481565b610386730c10bf8fcb7bf5412187a595ab97a3609160b5c681565b61038673ba3d9687cf50fe253cd2e1cfeede1d6787344ed581565b610386739f8f72aa9304c8b593d555f12ef6589cc3a579a281565b61038673b62132e35a6c13ee1ee0f84dc5d40bad8d81520681565b610386734fabb145d64652a948d72533023f6e7a623c7c5381565b610386737f39c581f595b53c5cb19bd0b3f8da6c935e2ca081565b610386732260fac5e5542a773aa44fbcfedf7c193bc2c59981565b610386731f9840a85d5af5bf1d1762f925bdaddc4201f98481565b61038673b8c77482e45f1f44de1745f52c74426c631bdd5281565b6103867375231f58b43240c9718dd58b4967c5114342a86c81565b61038673c669928185dbce49d2230cc9b0979be6dc79795781565b610386735d3a536e4d6dbd6114cc1ead35777bab948e364381565b61038673a0b73e1ff0b80914ab6fe0444e65848c4c34450b81565b61038673f34960d9d60be18cc1d5afc1a6f012a723a2881181565b610386734e15361fd6b4bb609fa63c81a2be19d87371787081565b61038673eeeeeeeeeeeeeeeeeeeeeeeeeeeeeeeeeeeeeeee81565b6103866e085d4780b73119b644ae5ecd22b37681565b610386734a220e6096b25eadb88358cb44068a324825467581565b61038673a0b86991c6218b36c1d19d4a2e9eb0ce3606eb4881565b610386733506424f91fd33084466f402d5d97f05f8e3b4af81565b6103867305f4a42e251f2d52b8ed15e9fedaacfcef1fad2781565b6103867345804880de22913dafe09f4980848ece6ecbaf7881565b610386734ddc2d193948926d02f9b1fe9e1daa0718270ed581565b610386730abcfbfa8e3fda8b7fba18721caf7d5cf55cf5f581565b61038673c02aaa39b223fe8d0a0e5c4f27ead9083c756cc281565b61038673853d955acef822db058eb8505911ed77f175b99e81565b610386738e870d67f660d95d5be530380d0ec0bd388289e181565b61038673d850942ef8811f2a866692a623011bde52a462c181565b6103867306325440d014e39736583c165c2963ba99faf14e81565b61038673fd09cf7cfffa9932e33668311c4777cb9db3c9be81565b610386600081565b61038673ae7ab96520de3a18e5e111b5eaab095312d7fe8481565b61038673dac17f958d2ee523a2206206994597c13d831ec781565b6103867339aa39c021dfbae8fac545936693ac917d5e756381565b610386735a98fcbea516cf06857215779fd812ca3bef1b3281565b61038673111111111117dc0aa78b770fa6a738034120c30281565b610386731a4b46696b2bb4794eb3d4c26f1c55f9170fa4c581565b610386736b175474e89094c44da98b954eedeac495271d0f81565b6103867395ad61b0a150d79219dcf64e1e6cc01f0b64c4ce81565b6103867341ab1b6fcbb2fa9dced81acbdec13ea6315f2bf281565b61038673c011a73ee8576fb46f5e1c5751ca3b9fe0af2a6f81565b610386732af5d2ad76741191d15dfe7bf6ac92d4bd912ca381565b61038673056fd409e1d7a124bd7017459dfea2f387b6d5cd81565b610386733883f5e181fccaf8410fa61e12b59bad963fb6458156fea2646970667358221220f9c22afbc8c05523f93a5730250ad63f98f45cb50f672d85c862d84d13fb75dd64736f6c63430008180033","linkReferences":{}},"methodIdentifiers":{"APE()":"1b5d145d","BIT()":"dfb685cb","BNB()":"58f7f6d2","BTT()":"6a2ce8a5","BUSD()":"484f4ea9","CHZ()":"8e416c93","CRO()":"721361ca","DAI()":"e0bab4c4","ETH()":"8322fff2","FRAX()":"b0e4556f","FTM()":"77a7e77d","FXS()":"200ea222","GRT()":"00bbe489","GUSD()":"f7375a8b","HEX()":"1d558966","HT()":"08190cda","KCS()":"77802e47","LDO()":"d88bba11","LEO()":"f514bf42","LINK()":"1b6b6d23","MATIC()":"15b550d6","MKR()":"3d31a4af","NATIVE_ASSET()":"bf53253b","NEAR()":"32980e43","NEXO()":"3eeddcc2","OKB()":"6275ecd8","ONEINCH()":"db09644d","PAXG()":"9ca6da2e","QNT()":"834d4cd5","SAND()":"2032afe4","SHIB()":"e24b85e7","SNX()":"e8d6101e","THETA()":"fc22290b","TUSD()":"8323550b","UNI()":"541bcb76","USDC()":"89a30271","USDD()":"32c8ffa3","USDP()":"b1520922","USDT()":"c54e44eb","VEN()":"bc356eea","WBTC()":"4dede3de","WETH()":"ad5c4648","XAUt()":"2f243a3b","XDCE()":"e497e88e","ZIL()":"9c0770fe","aAAVE()":"3975f691","anyLTC()":"a4aeacc8","cDAI()":"6f6941b9","cETH()":"a1b4d011","cUSDC()":"ce347a3e","stETH()":"c1fe3e48","steCRV()":"be97a980","stkAAVE()":"1fc29c01","wMANA()":"bed81249","wstETH()":"4aa07e64"},"id":2}