{"abi":[{"type":"function","name":"AAVE","inputs":[],"outputs":[{"name":"","type":"IERC20","internalType":"contract IERC20"}],"stateMutability":"view"},{"type":"function","name":"ALPACA","inputs":[],"outputs":[{"name":"","type":"IERC20","internalType":"contract IERC20"}],"stateMutability":"view"},{"type":"function","name":"ALPHA","inputs":[],"outputs":[{"name":"","type":"IERC20","internalType":"contract IERC20"}],"stateMutability":"view"},{"type":"function","name":"AVAX","inputs":[],"outputs":[{"name":"","type":"IERC20","internalType":"contract IERC20"}],"stateMutability":"view"},{"type":"function","name":"BAND","inputs":[],"outputs":[{"name":"","type":"IERC20","internalType":"contract IERC20"}],"stateMutability":"view"},{"type":"function","name":"BEETS","inputs":[],"outputs":[{"name":"","type":"IERC20","internalType":"contract IERC20"}],"stateMutability":"view"},{"type":"function","name":"BOBA","inputs":[],"outputs":[{"name":"","type":"IERC20","internalType":"contract IERC20"}],"stateMutability":"view"},{"type":"function","name":"BOO","inputs":[],"outputs":[{"name":"","type":"IERC20","internalType":"contract IERC20"}],"stateMutability":"view"},{"type":"function","name":"BTC","inputs":[],"outputs":[{"name":"","type":"IERC20","internalType":"contract IERC20"}],"stateMutability":"view"},{"type":"function","name":"CEL","inputs":[],"outputs":[{"name":"","type":"IERC20","internalType":"contract IERC20"}],"stateMutability":"view"},{"type":"function","name":"CRV","inputs":[],"outputs":[{"name":"","type":"IERC20","internalType":"contract IERC20"}],"stateMutability":"view"},{"type":"function","name":"DAI","inputs":[],"outputs":[{"name":"","type":"IERC20","internalType":"contract IERC20"}],"stateMutability":"view"},{"type":"function","name":"DOLA","inputs":[],"outputs":[{"name":"","type":"IERC20","internalType":"contract IERC20"}],"stateMutability":"view"},{"type":"function","name":"FBAND","inputs":[],"outputs":[{"name":"","type":"IERC20","internalType":"contract IERC20"}],"stateMutability":"view"},{"type":"function","name":"FBTC","inputs":[],"outputs":[{"name":"","type":"IERC20","internalType":"contract IERC20"}],"stateMutability":"view"},{"type":"function","name":"FETH","inputs":[],"outputs":[{"name":"","type":"IERC20","internalType":"contract IERC20"}],"stateMutability":"view"},{"type":"function","name":"FRAX","inputs":[],"outputs":[{"name":"","type":"IERC20","internalType":"contract IERC20"}],"stateMutability":"view"},{"type":"function","name":"FXS","inputs":[],"outputs":[{"name":"","type":"IERC20","internalType":"contract IERC20"}],"stateMutability":"view"},{"type":"function","name":"GEIST","inputs":[],"outputs":[{"name":"","type":"IERC20","internalType":"contract IERC20"}],"stateMutability":"view"},{"type":"function","name":"GEL","inputs":[],"outputs":[{"name":"","type":"IERC20","internalType":"contract IERC20"}],"stateMutability":"view"},{"type":"function","name":"HEC","inputs":[],"outputs":[{"name":"","type":"IERC20","internalType":"contract IERC20"}],"stateMutability":"view"},{"type":"function","name":"HEGIC","inputs":[],"outputs":[{"name":"","type":"IERC20","internalType":"contract IERC20"}],"stateMutability":"view"},{"type":"function","name":"HOGE","inputs":[],"outputs":[{"name":"","type":"IERC20","internalType":"contract IERC20"}],"stateMutability":"view"},{"type":"function","name":"KP3R","inputs":[],"outputs":[{"name":"","type":"IERC20","internalType":"contract IERC20"}],"stateMutability":"view"},{"type":"function","name":"LINK","inputs":[],"outputs":[{"name":"","type":"IERC20","internalType":"contract IERC20"}],"stateMutability":"view"},{"type":"function","name":"MIM","inputs":[],"outputs":[{"name":"","type":"IERC20","internalType":"contract IERC20"}],"stateMutability":"view"},{"type":"function","name":"NATIVE_ASSET","inputs":[],"outputs":[{"name":"","type":"IERC20","internalType":"contract IERC20"}],"stateMutability":"view"},{"type":"function","name":"ORBS","inputs":[],"outputs":[{"name":"","type":"IERC20","internalType":"contract IERC20"}],"stateMutability":"view"},{"type":"function","name":"ORN","inputs":[],"outputs":[{"name":"","type":"IERC20","internalType":"contract IERC20"}],"stateMutability":"view"},{"type":"function","name":"RAI","inputs":[],"outputs":[{"name":"","type":"IERC20","internalType":"contract IERC20"}],"stateMutability":"view"},{"type":"function","name":"RISE","inputs":[],"outputs":[{"name":"","type":"IERC20","internalType":"contract IERC20"}],"stateMutability":"view"},{"type":"function","name":"SFTM","inputs":[],"outputs":[{"name":"","type":"IERC20","internalType":"contract IERC20"}],"stateMutability":"view"},{"type":"function","name":"SNX","inputs":[],"outputs":[{"name":"","type":"IERC20","internalType":"contract IERC20"}],"stateMutability":"view"},{"type":"function","name":"SPELL","inputs":[],"outputs":[{"name":"","type":"IERC20","internalType":"contract IERC20"}],"stateMutability":"view"},{"type":"function","name":"STG","inputs":[],"outputs":[{"name":"","type":"IERC20","internalType":"contract IERC20"}],"stateMutability":"view"},{"type":"function","name":"SUSHI","inputs":[],"outputs":[{"name":"","type":"IERC20","internalType":"contract IERC20"}],"stateMutability":"view"},{"type":"function","name":"SYN","inputs":[],"outputs":[{"name":"","type":"IERC20","internalType":"contract IERC20"}],"stateMutability":"view"},{"type":"function","name":"TETU","inputs":[],"outputs":[{"name":"","type":"IERC20","internalType":"contract IERC20"}],"stateMutability":"view"},{"type":"function","name":"TOMB","inputs":[],"outputs":[{"name":"","type":"IERC20","internalType":"contract IERC20"}],"stateMutability":"view"},{"type":"function","name":"TOR","inputs":[],"outputs":[{"name":"","type":"IERC20","internalType":"contract IERC20"}],"stateMutability":"view"},{"type":"function","name":"TREEB","inputs":[],"outputs":[{"name":"","type":"IERC20","internalType":"contract IERC20"}],"stateMutability":"view"},{"type":"function","name":"TSHARE","inputs":[],"outputs":[{"name":"","type":"IERC20","internalType":"contract IERC20"}],"stateMutability":"view"},{"type":"function","name":"TUSD","inputs":[],"outputs":[{"name":"","type":"IERC20","internalType":"contract IERC20"}],"stateMutability":"view"},{"type":"function","name":"USDC","inputs":[],"outputs":[{"name":"","type":"IERC20","internalType":"contract IERC20"}],"stateMutability":"view"},{"type":"function","name":"USDD","inputs":[],"outputs":[{"name":"","type":"IERC20","internalType":"contract IERC20"}],"stateMutability":"view"},{"type":"function","name":"WFTM","inputs":[],"outputs":[{"name":"","type":"IERC20","internalType":"contract IERC20"}],"stateMutability":"view"},{"type":"function","name":"WIGO","inputs":[],"outputs":[{"name":"","type":"IERC20","internalType":"contract IERC20"}],"stateMutability":"view"},{"type":"function","name":"YFI","inputs":[],"outputs":[{"name":"","type":"IERC20","internalType":"contract IERC20"}],"stateMutability":"view"},{"type":"function","name":"fmXEN","inputs":[],"outputs":[{"name":"","type":"IERC20","internalType":"contract IERC20"}],"stateMutability":"view"},{"type":"function","name":"sHEC","inputs":[],"outputs":[{"name":"","type":"IERC20","internalType":"contract IERC20"}],"stateMutability":"view"},{"type":"function","name":"wBAN","inputs":[],"outputs":[{"name":"","type":"IERC20","internalType":"contract IERC20"}],"stateMutability":"view"}],"bytecode":{"object":"0x6108a061003a600b82828239805160001a60731461002d57634e487b7160e01b600052600060045260246000fd5b30600052607381538281f3fe73000000000000000000000000000000000000000030146080604052600436106102fb5760003560e01c806392c592d0116101a7578063bf53253b116100f3578063dc99b69f116100ac578063e2398cca11610086578063e2398cca146107fe578063e7995b2e14610819578063e8d6101e14610834578063f7c2b5ed1461084f57600080fd5b8063dc99b69f146107ad578063e0136fcf146107c8578063e0bab4c4146107e357600080fd5b8063bf53253b1461071e578063c139acfa14610726578063d250003314610741578063d82d41ac1461075c578063d8d908c414610777578063daec383d1461079257600080fd5b8063b0bb1c5a11610160578063b59f091e1161013a578063b59f091e146106b2578063b5ee45c1146106cd578063b878b86c146106e8578063bb49ab801461070357600080fd5b8063b0bb1c5a14610661578063b0e4556f1461067c578063b2c1e3821461069757600080fd5b806392c592d0146105bf578063945c9142146105da5780639854278e146105f55780639a0241f414610610578063a111236c1461062b578063ab560e101461064657600080fd5b806346a8bee51161026657806371e395a81161021f578063897c65a6116101f9578063897c65a61461055357806389a302711461056e5780638c3d7de6146105895780638dd0c181146105a457600080fd5b806371e395a814610502578063766367221461051d5780638323550b1461053857600080fd5b806346a8bee51461046057806348ccda3c1461047b5780634c16e97314610496578063512d7ef4146104b15780635d0afda9146104cc578063624c7762146104e757600080fd5b806321dbe876116102b857806321dbe876146103be5780632792949d146103d9578063300f03ab146103f457806332c8ffa31461040f5780633ef2c6001461042a5780634272e7d71461044557600080fd5b806305e0b9a0146103005780630a742d621461033757806310988fb9146103525780631933f9d31461036d5780631b6b6d2314610388578063200ea222146103a3575b600080fd5b61031b732a5062d22adcfaafbd5c541d4da82e4b450d421281565b6040516001600160a01b03909116815260200160405180910390f35b61031b73e20b9e246db5a0d21bf9209e4858bc9a3ff7a03481565b61031b7346e7628e8b4350b2716ab470ee0ba1fa9e76c6c581565b61031b734389b230d15119c347b9e8bea6d930a21aadf6ba81565b61031b73b3654dc3d10ea7645f8319668e8f54d2574fbdc881565b61031b737d016eec9c25232b01f23ef992d98ca97fc2af5a81565b61031b7321be370d5312f44cb42ce377bc9b8a0cef1a4c8381565b61031b73321162cd933e2be498cd2267a90534a804051b1181565b61031b7315b7c0c907e4c6b9adaaaabc300c08991d6cea0581565b61031b73cf799767d366d789e8b446981c2d578e241fa25c81565b61031b73658b0c7613e890ee50b8c4bc6a3f41ef411208ad81565b61031b73d2cdcb6bdee6f78de7988a6a60d13f6ef0b576d981565b61031b73ef4b763385838fffc708000f884026b8c043427581565b61031b736a07a792ab2965c72a5b8088d3a069a7ac3a993b81565b61031b732f6f07cdcf3588944bf4c42ac74ff24bf56e759081565b61031b73e992beab6659bff447893641a378fbbf031c5bd681565b61031b7375bdef24285013387a47775828bec90b91ca9a5f81565b61031b73841fad6eae12c286d1fd18d1d525dffa75c7effe81565b61031b7344b26e839eb3572c5e959f994804a5de6660034981565b61031b73468003b688943977e6130f4f68f23aad939a104081565b61031b739879abdea01a879644185341f7af7d8343556b7a81565b61031b7369c744d3444202d35a2783929a0f930f2fbb05ad81565b61031b7304068da6c83afcfa0e13ba15a6696662335d5b7581565b61031b73f31778d591c558140398f46feca42a6a2dbffe9081565b61031b732c78f1b70ccf63cdee49f9233e9faa99d43aa07e81565b61031b733129662808bec728a27ab6a6b9afd3cbaca8a43c81565b61031b731e4f97b9f9f913c46f1632781732927b9019c68b81565b61031b735c4fdfc5233f935f20d2adba572f770c2e377ab081565b61031b7365c9d9d080714cda7b5d58989dc27f897f16517981565b61031b7374e23df9110aa9ea0b6ff2faee01e740ca1c642e81565b61031b73ae75a438b2e0cb8bb01ec1e1e376de11d44477cc81565b61031b7311eb3aa66fe1f2b75cb353d3e874e96968182bda81565b61031b73dc301622e621166bd8e82f2ca0a26c13ad0be35581565b61031b73e1146b9ac456fcbb60644c36fd3f868a9072fc6e81565b61031b73511d35c52a3c244e7b8bd92c0c297755fbd8921281565b61031b734cdf39285d7ca8eb3f090fda0c069ba5f4145b3781565b61031b73e55e19fb4f2d85af758950957714292dac1e25b281565b61031b73ad996a45fd2373ed0b10efa4a8ecb9de445a430281565b61031b600081565b61031b736c021ae822bea943b2e66552bde1d2696a53fbb781565b61031b73c17c30e98541188614df99239cabd40280810ca381565b61031b7329b0da86e484e1c0029b56e817912d778ac0ec6981565b61031b73f24bcf4d1e507740041c9cfd2dddb29585adce1e81565b61031b7382f0b8b456c1a451378467398982d4834b6829c181565b61031b73a71353bb71dda105d383b02fc2dd172c4d39ef8b81565b61031b73d8321aa83fb0a4ecd6348d4577431310a6e0814d81565b61031b738d11ec38a3eb5e956b052f67da8bdc9bef8abf3e81565b61031b73078eef5a2fb533e1a4d487ef64b27df113d12c3281565b61031b733e01b7e242d5af8064cb9a8f9468ac0f8683617c81565b61031b7356ee926bd8c72b2d5fa1af4d9e4cbb515a1e3adc81565b61031b73c60d7067dfbc6f2caf30523a064f416a5af529638156fea2646970667358221220651524affa8854a27fe2f53935bf5485a8447284a2b6eb3e0d4d06e19313e37664736f6c63430008180033","linkReferences":{}},"methodIdentifiers":{"AAVE()":"48ccda3c","ALPACA()":"bb49ab80","ALPHA()":"b0bb1c5a","AVAX()":"b59f091e","BAND()":"10988fb9","BEETS()":"d8d908c4","BOBA()":"1933f9d3","BOO()":"624c7762","BTC()":"2792949d","CEL()":"8dd0c181","CRV()":"945c9142","DAI()":"e0bab4c4","DOLA()":"92c592d0","FBAND()":"e2398cca","FBTC()":"b2c1e382","FETH()":"3ef2c600","FRAX()":"b0e4556f","FXS()":"200ea222","GEIST()":"e0136fcf","GEL()":"300f03ab","HEC()":"9854278e","HEGIC()":"71e395a8","HOGE()":"8c3d7de6","KP3R()":"05e0b9a0","LINK()":"1b6b6d23","MIM()":"daec383d","NATIVE_ASSET()":"bf53253b","ORBS()":"e7995b2e","ORN()":"4272e7d7","RAI()":"dc99b69f","RISE()":"d2500033","SFTM()":"897c65a6","SNX()":"e8d6101e","SPELL()":"76636722","STG()":"4c16e973","SUSHI()":"ab560e10","SYN()":"b878b86c","TETU()":"9a0241f4","TOMB()":"c139acfa","TOR()":"a111236c","TREEB()":"f7c2b5ed","TSHARE()":"b5ee45c1","TUSD()":"8323550b","USDC()":"89a30271","USDD()":"32c8ffa3","WFTM()":"21dbe876","WIGO()":"512d7ef4","YFI()":"d82d41ac","fmXEN()":"46a8bee5","sHEC()":"5d0afda9","wBAN()":"0a742d62"},"id":2}