{"abi":[{"type":"function","name":"AGVE","inputs":[],"outputs":[{"name":"","type":"IERC20","internalType":"contract IERC20"}],"stateMutability":"view"},{"type":"function","name":"BADGER","inputs":[],"outputs":[{"name":"","type":"IERC20","internalType":"contract IERC20"}],"stateMutability":"view"},{"type":"function","name":"BRIGHT","inputs":[],"outputs":[{"name":"","type":"IERC20","internalType":"contract IERC20"}],"stateMutability":"view"},{"type":"function","name":"COW","inputs":[],"outputs":[{"name":"","type":"IERC20","internalType":"contract IERC20"}],"stateMutability":"view"},{"type":"function","name":"DATA","inputs":[],"outputs":[{"name":"","type":"IERC20","internalType":"contract IERC20"}],"stateMutability":"view"},{"type":"function","name":"DHV","inputs":[],"outputs":[{"name":"","type":"IERC20","internalType":"contract IERC20"}],"stateMutability":"view"},{"type":"function","name":"DIP","inputs":[],"outputs":[{"name":"","type":"IERC20","internalType":"contract IERC20"}],"stateMutability":"view"},{"type":"function","name":"DONUT","inputs":[],"outputs":[{"name":"","type":"IERC20","internalType":"contract IERC20"}],"stateMutability":"view"},{"type":"function","name":"DPI","inputs":[],"outputs":[{"name":"","type":"IERC20","internalType":"contract IERC20"}],"stateMutability":"view"},{"type":"function","name":"DXD","inputs":[],"outputs":[{"name":"","type":"IERC20","internalType":"contract IERC20"}],"stateMutability":"view"},{"type":"function","name":"ESR","inputs":[],"outputs":[{"name":"","type":"IERC20","internalType":"contract IERC20"}],"stateMutability":"view"},{"type":"function","name":"ETHIX","inputs":[],"outputs":[{"name":"","type":"IERC20","internalType":"contract IERC20"}],"stateMutability":"view"},{"type":"function","name":"ETHO","inputs":[],"outputs":[{"name":"","type":"IERC20","internalType":"contract IERC20"}],"stateMutability":"view"},{"type":"function","name":"EWTB","inputs":[],"outputs":[{"name":"","type":"IERC20","internalType":"contract IERC20"}],"stateMutability":"view"},{"type":"function","name":"FOX","inputs":[],"outputs":[{"name":"","type":"IERC20","internalType":"contract IERC20"}],"stateMutability":"view"},{"type":"function","name":"GIV","inputs":[],"outputs":[{"name":"","type":"IERC20","internalType":"contract IERC20"}],"stateMutability":"view"},{"type":"function","name":"GNO","inputs":[],"outputs":[{"name":"","type":"IERC20","internalType":"contract IERC20"}],"stateMutability":"view"},{"type":"function","name":"GTON","inputs":[],"outputs":[{"name":"","type":"IERC20","internalType":"contract IERC20"}],"stateMutability":"view"},{"type":"function","name":"HAUS","inputs":[],"outputs":[{"name":"","type":"IERC20","internalType":"contract IERC20"}],"stateMutability":"view"},{"type":"function","name":"HNY","inputs":[],"outputs":[{"name":"","type":"IERC20","internalType":"contract IERC20"}],"stateMutability":"view"},{"type":"function","name":"HOP","inputs":[],"outputs":[{"name":"","type":"IERC20","internalType":"contract IERC20"}],"stateMutability":"view"},{"type":"function","name":"HOPR","inputs":[],"outputs":[{"name":"","type":"IERC20","internalType":"contract IERC20"}],"stateMutability":"view"},{"type":"function","name":"JPYC","inputs":[],"outputs":[{"name":"","type":"IERC20","internalType":"contract IERC20"}],"stateMutability":"view"},{"type":"function","name":"LEVIN","inputs":[],"outputs":[{"name":"","type":"IERC20","internalType":"contract IERC20"}],"stateMutability":"view"},{"type":"function","name":"LINK","inputs":[],"outputs":[{"name":"","type":"IERC20","internalType":"contract IERC20"}],"stateMutability":"view"},{"type":"function","name":"MATIC","inputs":[],"outputs":[{"name":"","type":"IERC20","internalType":"contract IERC20"}],"stateMutability":"view"},{"type":"function","name":"MIVA","inputs":[],"outputs":[{"name":"","type":"IERC20","internalType":"contract IERC20"}],"stateMutability":"view"},{"type":"function","name":"MPS","inputs":[],"outputs":[{"name":"","type":"IERC20","internalType":"contract IERC20"}],"stateMutability":"view"},{"type":"function","name":"NATIVE_ASSET","inputs":[],"outputs":[{"name":"","type":"IERC20","internalType":"contract IERC20"}],"stateMutability":"view"},{"type":"function","name":"NODE","inputs":[],"outputs":[{"name":"","type":"IERC20","internalType":"contract IERC20"}],"stateMutability":"view"},{"type":"function","name":"RAID","inputs":[],"outputs":[{"name":"","type":"IERC20","internalType":"contract IERC20"}],"stateMutability":"view"},{"type":"function","name":"RICE","inputs":[],"outputs":[{"name":"","type":"IERC20","internalType":"contract IERC20"}],"stateMutability":"view"},{"type":"function","name":"RPL","inputs":[],"outputs":[{"name":"","type":"IERC20","internalType":"contract IERC20"}],"stateMutability":"view"},{"type":"function","name":"STAKE","inputs":[],"outputs":[{"name":"","type":"IERC20","internalType":"contract IERC20"}],"stateMutability":"view"},{"type":"function","name":"SWASH","inputs":[],"outputs":[{"name":"","type":"IERC20","internalType":"contract IERC20"}],"stateMutability":"view"},{"type":"function","name":"SWPR","inputs":[],"outputs":[{"name":"","type":"IERC20","internalType":"contract IERC20"}],"stateMutability":"view"},{"type":"function","name":"SYMM","inputs":[],"outputs":[{"name":"","type":"IERC20","internalType":"contract IERC20"}],"stateMutability":"view"},{"type":"function","name":"TEC","inputs":[],"outputs":[{"name":"","type":"IERC20","internalType":"contract IERC20"}],"stateMutability":"view"},{"type":"function","name":"UNCX","inputs":[],"outputs":[{"name":"","type":"IERC20","internalType":"contract IERC20"}],"stateMutability":"view"},{"type":"function","name":"UNI","inputs":[],"outputs":[{"name":"","type":"IERC20","internalType":"contract IERC20"}],"stateMutability":"view"},{"type":"function","name":"USDC","inputs":[],"outputs":[{"name":"","type":"IERC20","internalType":"contract IERC20"}],"stateMutability":"view"},{"type":"function","name":"USDT","inputs":[],"outputs":[{"name":"","type":"IERC20","internalType":"contract IERC20"}],"stateMutability":"view"},{"type":"function","name":"WATER","inputs":[],"outputs":[{"name":"","type":"IERC20","internalType":"contract IERC20"}],"stateMutability":"view"},{"type":"function","name":"WETH","inputs":[],"outputs":[{"name":"","type":"IERC20","internalType":"contract IERC20"}],"stateMutability":"view"},{"type":"function","name":"WXDAI","inputs":[],"outputs":[{"name":"","type":"IERC20","internalType":"contract IERC20"}],"stateMutability":"view"},{"type":"function","name":"YFI","inputs":[],"outputs":[{"name":"","type":"IERC20","internalType":"contract IERC20"}],"stateMutability":"view"},{"type":"function","name":"ZeroxMR","inputs":[],"outputs":[{"name":"","type":"IERC20","internalType":"contract IERC20"}],"stateMutability":"view"},{"type":"function","name":"jCHF","inputs":[],"outputs":[{"name":"","type":"IERC20","internalType":"contract IERC20"}],"stateMutability":"view"},{"type":"function","name":"jEUR","inputs":[],"outputs":[{"name":"","type":"IERC20","internalType":"contract IERC20"}],"stateMutability":"view"},{"type":"function","name":"xCOMB","inputs":[],"outputs":[{"name":"","type":"IERC20","internalType":"contract IERC20"}],"stateMutability":"view"},{"type":"function","name":"xMOON","inputs":[],"outputs":[{"name":"","type":"IERC20","internalType":"contract IERC20"}],"stateMutability":"view"}],"bytecode":{"object":"0x6108a061003a600b82828239805160001a60731461002d57634e487b7160e01b600052600060045260246000fd5b30600052607381538281f3fe73000000000000000000000000000000000000000030146080604052600436106102fb5760003560e01c806390e0eedf116101a7578063c7c3c48b116100f3578063de6c841c116100ac578063eb0d77e711610086578063eb0d77e7146107fe578063f856d80f14610819578063fb3aa1e314610834578063ff47770b1461084f57600080fd5b8063de6c841c146107ad578063e7df8ab5146107c8578063e85a1b0a146107e357600080fd5b8063c7c3c48b1461070b578063ca84656714610726578063d1f3a24a14610741578063d2c89e991461075c578063d82d41ac14610777578063da9c35b11461079257600080fd5b8063a502231e11610160578063c004cb111161013a578063c004cb111461069f578063c54e44eb146106ba578063c5d6baac146106d5578063c69e4b1b146106f057600080fd5b8063a502231e14610661578063ad5c46481461067c578063bf53253b1461069757600080fd5b806390e0eedf146105bf5780639560e65d146105da5780639a0c7773146105f55780639a6f978d146106105780639b903a141461062b578063a493bb8b1461064657600080fd5b80633fe8734a11610266578063643f88ff1161021f5780638672ebcd116101f95780638672ebcd1461055357806389a302711461056e5780638b248168146105895780638c6e4c96146105a457600080fd5b8063643f88ff14610502578063775d049e1461051d5780637ce657251461053857600080fd5b80633fe8734a1461046057806351bfcdbd1461047b5780635239ce0514610496578063541bcb76146104b15780635691dfe0146104cc578063604a52fb146104e757600080fd5b8063167625a9116102b8578063167625a9146103be57806316fab81e146103d957806317b89f3a146103f45780631b6b6d231461040f57806338e455951461042a5780633d7750c71461044557600080fd5b80630bcf5da7146103005780630c0fd886146103375780630d44525d146103525780630d88324d1461036d578063125fdbbc1461038857806315b550d6146103a3575b600080fd5b61031b73dfc20ae04ed70bd9c7d720f449eedae19f659d6581565b6040516001600160a01b03909116815260200160405180910390f35b61031b73256eb8a51f382650b2a1e946b8811953640ee47d81565b61031b739fb1d52596c44603198fb0aee434fac3a679f70281565b61031b7363e62989d9eb2d37dfdb1f93a22f063635b07d5181565b61031b73b7d311e2eb55f2f68a9440da38e7989210b9a05e81565b61031b737122d7661c4564b7c6cd4878b06766489a6028a281565b61031b7384e2c67cbefae6b5148fca7d02b341b12ff4b5bb81565b61031b7321a42669643f45bc0e086b8fc2ed70c23d67509d81565b61031b731698cd22278ef6e7c0df45a8dea72edbea9e42aa81565b61031b73e2e73a1c69ecf83f464efce6a5be353a37ca09b281565b61031b739c58bacc331c9aa871afd802db6379a98e80cedb81565b61031b7371850b7e9ee3f13ab46d67167341e4bdc905eef981565b61031b733a97704a1b25f08aa230ae53b352e2e72ef5284381565b61031b73c60e38c6352875c051b481cbe79dd0383adb781781565b61031b7338fb649ad3d6ba1113be5f57b927053e97fc5bf781565b61031b734537e328bf7e4efa29d05caea260d7fe26af9d7481565b61031b734291f029b9e7acb02d49428458cf6fceac545f8181565b61031b73e91d153e0b41518a2ce8dd3d7944fa863463a97d81565b61031b73fbdd194376de19a88118e84e279b977f165d01b881565b61031b738c88ea1fd60462ef7004b9e288afcb4680a3c50c81565b61031b735df8339c5e282ee48c0c7ce8a7d01a73d38b3b2781565b61031b731e16aa4df73d29c029d94ceda3e3114ec191e25a81565b61031b73ddafbb505ad214d7b80b1f830fccc89b60fb7a8381565b61031b73431d5dff03120afa4bdf332c61a6e1766ef37bdb81565b61031b7318e9262e68cc6c6004db93105cc7c001bb103e4981565b61031b73fa57aa7beed63d03aaf85ffd1753f5f6242588fb81565b61031b73d3d47d5578e55c880505dc40648f7f9307c3e7a881565b61031b73c45b3c1c24d5f54e7a2cf288ac668c74dd507a8481565b61031b7348b1b0d077b4919b65b4e4114806dd803901e1d981565b61031b732f0e755efe6b58238a67db420ff3513ec1fb31ef81565b61031b73d3226b12e6188133b19ac0419f34b0ed5b10f06981565b61031b73ec3f3e6d7907acda3a7431abd230196cda3fbb1981565b61031b736a023ccd1ff6f2045c3309768ead9e68f978f6e181565b61031b600081565b61031b73b17d999e840e0c1b157ca5ab8039bd958b5fa31781565b61031b734ecaba5870353805a9f068101a40e0f32ed605c681565b61031b734f4f9b8d5b4d0dc10506e5551b0513b61fd59e7581565b61031b73b0c5f3100a4d9d9532a4cfd68c55f1ae8da987eb81565b61031b7397edc0e345fbbbd8460847fcfa3bc2a13bf8641f81565b61031b73532801ed6f82fffd2dab70a19fc2d7b2772c4f4b81565b61031b736ab6d61428fde76768d7b45d8bfeec19c6ef91a881565b61031b73177127622c4a00f3d409b75571e12cb3c8973d3c81565b61031b73bf65bfcb5da067446cee6a706ba3fe2fb1a9fdfd81565b61031b73b90d6bec20993be5d72a5ab353343f7a0281f15881565b61031b7383ff60e2f93f8edd0637ef669c69d5fb4f64ca8e81565b61031b73524b969793a64a602342d89bc2789d43a016b13a81565b61031b73c5102fe9359fd9a28f877a67e36b0f050d81a3cc81565b61031b732d5563da42b06fbbf9c67b7dc073cf6a7842239e81565b61031b736a8cb6714b1ee5b471a7d2ec4302cb4f5ff25ec281565b61031b73d057604a14982fe8d88c5fc25aac3267ea142a0881565b61031b730116e28b43a358162b96f70b4de14c98a4465f258156fea264697066735822122048eeb20a64f8df031e3c9f670d6e9a270875104a26b19ea5e9d66cf08f4cbd9164736f6c63430008180033","linkReferences":{}},"methodIdentifiers":{"AGVE()":"3fe8734a","BADGER()":"0bcf5da7","BRIGHT()":"de6c841c","COW()":"d2c89e99","DATA()":"0c0fd886","DHV()":"643f88ff","DIP()":"9a6f978d","DONUT()":"e7df8ab5","DPI()":"9560e65d","DXD()":"da9c35b1","ESR()":"a493bb8b","ETHIX()":"a502231e","ETHO()":"c004cb11","EWTB()":"f856d80f","FOX()":"16fab81e","GIV()":"c5d6baac","GNO()":"38e45595","GTON()":"d1f3a24a","HAUS()":"c69e4b1b","HNY()":"3d7750c7","HOP()":"e85a1b0a","HOPR()":"fb3aa1e3","JPYC()":"8b248168","LEVIN()":"17b89f3a","LINK()":"1b6b6d23","MATIC()":"15b550d6","MIVA()":"0d88324d","MPS()":"90e0eedf","NATIVE_ASSET()":"bf53253b","NODE()":"51bfcdbd","RAID()":"8c6e4c96","RICE()":"c7c3c48b","RPL()":"9b903a14","STAKE()":"125fdbbc","SWASH()":"167625a9","SWPR()":"ca846567","SYMM()":"9a0c7773","TEC()":"7ce65725","UNCX()":"ff47770b","UNI()":"541bcb76","USDC()":"89a30271","USDT()":"c54e44eb","WATER()":"5691dfe0","WETH()":"ad5c4648","WXDAI()":"604a52fb","YFI()":"d82d41ac","ZeroxMR()":"775d049e","jCHF()":"eb0d77e7","jEUR()":"0d44525d","xCOMB()":"5239ce05","xMOON()":"8672ebcd"},"id":2}