{"abi":[{"type":"function","name":"BIFI","inputs":[],"outputs":[{"name":"","type":"IERC20","internalType":"contract IERC20"}],"stateMutability":"view"},{"type":"function","name":"BOB","inputs":[],"outputs":[{"name":"","type":"IERC20","internalType":"contract IERC20"}],"stateMutability":"view"},{"type":"function","name":"DAI","inputs":[],"outputs":[{"name":"","type":"IERC20","internalType":"contract IERC20"}],"stateMutability":"view"},{"type":"function","name":"DCN","inputs":[],"outputs":[{"name":"","type":"IERC20","internalType":"contract IERC20"}],"stateMutability":"view"},{"type":"function","name":"FRAX","inputs":[],"outputs":[{"name":"","type":"IERC20","internalType":"contract IERC20"}],"stateMutability":"view"},{"type":"function","name":"FXS","inputs":[],"outputs":[{"name":"","type":"IERC20","internalType":"contract IERC20"}],"stateMutability":"view"},{"type":"function","name":"GRG","inputs":[],"outputs":[{"name":"","type":"IERC20","internalType":"contract IERC20"}],"stateMutability":"view"},{"type":"function","name":"HOP","inputs":[],"outputs":[{"name":"","type":"IERC20","internalType":"contract IERC20"}],"stateMutability":"view"},{"type":"function","name":"IB","inputs":[],"outputs":[{"name":"","type":"IERC20","internalType":"contract IERC20"}],"stateMutability":"view"},{"type":"function","name":"KNC","inputs":[],"outputs":[{"name":"","type":"IERC20","internalType":"contract IERC20"}],"stateMutability":"view"},{"type":"function","name":"LDO","inputs":[],"outputs":[{"name":"","type":"IERC20","internalType":"contract IERC20"}],"stateMutability":"view"},{"type":"function","name":"LINK","inputs":[],"outputs":[{"name":"","type":"IERC20","internalType":"contract IERC20"}],"stateMutability":"view"},{"type":"function","name":"NATIVE_ASSET","inputs":[],"outputs":[{"name":"","type":"IERC20","internalType":"contract IERC20"}],"stateMutability":"view"},{"type":"function","name":"O3","inputs":[],"outputs":[{"name":"","type":"IERC20","internalType":"contract IERC20"}],"stateMutability":"view"},{"type":"function","name":"OP","inputs":[],"outputs":[{"name":"","type":"IERC20","internalType":"contract IERC20"}],"stateMutability":"view"},{"type":"function","name":"PICKLE","inputs":[],"outputs":[{"name":"","type":"IERC20","internalType":"contract IERC20"}],"stateMutability":"view"},{"type":"function","name":"RGT","inputs":[],"outputs":[{"name":"","type":"IERC20","internalType":"contract IERC20"}],"stateMutability":"view"},{"type":"function","name":"ROOBEE","inputs":[],"outputs":[{"name":"","type":"IERC20","internalType":"contract IERC20"}],"stateMutability":"view"},{"type":"function","name":"SNX","inputs":[],"outputs":[{"name":"","type":"IERC20","internalType":"contract IERC20"}],"stateMutability":"view"},{"type":"function","name":"THALES","inputs":[],"outputs":[{"name":"","type":"IERC20","internalType":"contract IERC20"}],"stateMutability":"view"},{"type":"function","name":"USDC","inputs":[],"outputs":[{"name":"","type":"IERC20","internalType":"contract IERC20"}],"stateMutability":"view"},{"type":"function","name":"USDD","inputs":[],"outputs":[{"name":"","type":"IERC20","internalType":"contract IERC20"}],"stateMutability":"view"},{"type":"function","name":"USDPLUS","inputs":[],"outputs":[{"name":"","type":"IERC20","internalType":"contract IERC20"}],"stateMutability":"view"},{"type":"function","name":"USDT","inputs":[],"outputs":[{"name":"","type":"IERC20","internalType":"contract IERC20"}],"stateMutability":"view"},{"type":"function","name":"UST","inputs":[],"outputs":[{"name":"","type":"IERC20","internalType":"contract IERC20"}],"stateMutability":"view"},{"type":"function","name":"WBTC","inputs":[],"outputs":[{"name":"","type":"IERC20","internalType":"contract IERC20"}],"stateMutability":"view"},{"type":"function","name":"sBTC","inputs":[],"outputs":[{"name":"","type":"IERC20","internalType":"contract IERC20"}],"stateMutability":"view"},{"type":"function","name":"sETH","inputs":[],"outputs":[{"name":"","type":"IERC20","internalType":"contract IERC20"}],"stateMutability":"view"},{"type":"function","name":"sLINK","inputs":[],"outputs":[{"name":"","type":"IERC20","internalType":"contract IERC20"}],"stateMutability":"view"},{"type":"function","name":"sUSD","inputs":[],"outputs":[{"name":"","type":"IERC20","internalType":"contract IERC20"}],"stateMutability":"view"}],"bytecode":{"object":"0x61054461003a600b82828239805160001a60731461002d57634e487b7160e01b600052600060045260246000fd5b30600052607381538281f3fe73000000000000000000000000000000000000000030146080604052600436106101e45760003560e01c8063bf53253b1161010e578063e4019e07116100ac578063e8d6101e1161007b578063e8d6101e146104a2578063e992d8d8146104bd578063ecebc29c146104d8578063f0c5d7ca146104f357600080fd5b8063e4019e0714610436578063e61a337614610451578063e7ec9f301461046c578063e85a1b0a1461048757600080fd5b8063d88bba11116100e8578063d88bba11146103ca578063e043f56f146103e5578063e0bab4c414610400578063e3cb85971461041b57600080fd5b8063bf53253b1461038c578063c19048b214610394578063c54e44eb146103af57600080fd5b806389a30271116101865780639dde4275116101555780639dde4275146103215780639f77fb591461033c578063a9d6e60214610356578063b0e4556f1461037157600080fd5b806389a30271146102b55780639324cac7146102d0578063952ad84e146102eb5780639b3bb8e21461030657600080fd5b80633d170678116101c25780633d17067814610256578063464c2780146102715780634dede3de1461028c5780637c9c3472146102a757600080fd5b80631b6b6d23146101e9578063200ea2221461022057806332c8ffa31461023b575b600080fd5b61020473350a791bfc2c21f9ed5d10980dad2e2638ffa7f681565b6040516001600160a01b03909116815260200160405180910390f35b6102047367ccea5bb16181e7b4109c9c2143c24a1c2205be81565b61020473c22885e06cd8507c5c74a948c59af853aed1ea5c81565b61020473b548f63d4405466b36c0c0ac3318a22fdcec711a81565b61020473ecf46257ed31c329f204eb43e254c609dee143b381565b6102047368f180fcce6836688e9084f035309e29bf0a209581565b6102046042602160991b0181565b610204737f5c764cbc14f9669b88837ca1490cca17c3160781565b610204738c6f28f2f1a3c87f0f938b96d27520d9751ec8d981565b610204731da650c3b2daa8aa9ff6f661d4156ce24d08a06281565b61020473e405de8f52ba7559f9df3c368500b6e6ae6cee4981565b61020473ee9801669c6138e84bd50deb500827b776777d2881565b61020472a35fd824c717879bf370e70ac6868b95870dfb81565b61020473b12c13e66ade1f72f71834f2fc5082db8c09135881565b610204732e3d870790dc77a83dd1d18184acc7439a53f47581565b610204600081565b610204730c5b4c92c948691eebf185c17eeb9c230dc019e981565b6102047394b008aa00579c1307b0ef2c499ad98a8ce58e5881565b61020473fdb794692724153d1488ccdbe0c56c252596735f81565b61020473298b9b95708152ff6968aafd889c6586e9169f1d81565b61020473da10009cbd5d07dd0cecc66161fc93d7c9000da181565b6102047373cb180bf0521828d8849bc8cf2b920918e2303281565b61020473b0b195aefa3650a6908f15cdac7d92f8a5791b0b81565b61020473217d47011b23bb961eb6d93ca9945b7501a5bb1181565b61020473fb21b70922b9f6e3c6274bcd6cb1aa8a0fe20b8081565b61020473c5102fe9359fd9a28f877a67e36b0f050d81a3cc81565b610204738700daec35af8ff88c16bdf0418774cb3d7599b481565b61020473a00e3a3511aac35ca78530c85007afcd3175381981565b610204734e720dd3ac5cfe1e1fbde4935f386bb1c66f464281565b61020473c5db22719a06418028a40a9b5e9a7c02959d0d088156fea2646970667358221220f37c67c0be33b9c31e49807b38475ea4e59b94740fc684e1b70e404aa00e404b64736f6c63430008180033","linkReferences":{}},"methodIdentifiers":{"BIFI()":"ecebc29c","BOB()":"e4019e07","DAI()":"e0bab4c4","DCN()":"952ad84e","FRAX()":"b0e4556f","FXS()":"200ea222","GRG()":"464c2780","HOP()":"e85a1b0a","IB()":"9f77fb59","KNC()":"e992d8d8","LDO()":"d88bba11","LINK()":"1b6b6d23","NATIVE_ASSET()":"bf53253b","O3()":"9dde4275","OP()":"7c9c3472","PICKLE()":"c19048b2","RGT()":"3d170678","ROOBEE()":"a9d6e602","SNX()":"e8d6101e","THALES()":"e61a3376","USDC()":"89a30271","USDD()":"32c8ffa3","USDPLUS()":"e3cb8597","USDT()":"c54e44eb","UST()":"e7ec9f30","WBTC()":"4dede3de","sBTC()":"e043f56f","sETH()":"9b3bb8e2","sLINK()":"f0c5d7ca","sUSD()":"9324cac7"},"id":2}