{"abi":[{"type":"function","name":"AAVE","inputs":[],"outputs":[{"name":"","type":"IERC20","internalType":"contract IERC20"}],"stateMutability":"view"},{"type":"function","name":"APE","inputs":[],"outputs":[{"name":"","type":"IERC20","internalType":"contract IERC20"}],"stateMutability":"view"},{"type":"function","name":"AVAX","inputs":[],"outputs":[{"name":"","type":"IERC20","internalType":"contract IERC20"}],"stateMutability":"view"},{"type":"function","name":"BAL","inputs":[],"outputs":[{"name":"","type":"IERC20","internalType":"contract IERC20"}],"stateMutability":"view"},{"type":"function","name":"BAT","inputs":[],"outputs":[{"name":"","type":"IERC20","internalType":"contract IERC20"}],"stateMutability":"view"},{"type":"function","name":"BNB","inputs":[],"outputs":[{"name":"","type":"IERC20","internalType":"contract IERC20"}],"stateMutability":"view"},{"type":"function","name":"BUSD","inputs":[],"outputs":[{"name":"","type":"IERC20","internalType":"contract IERC20"}],"stateMutability":"view"},{"type":"function","name":"CEL","inputs":[],"outputs":[{"name":"","type":"IERC20","internalType":"contract IERC20"}],"stateMutability":"view"},{"type":"function","name":"CHZ","inputs":[],"outputs":[{"name":"","type":"IERC20","internalType":"contract IERC20"}],"stateMutability":"view"},{"type":"function","name":"COMP","inputs":[],"outputs":[{"name":"","type":"IERC20","internalType":"contract IERC20"}],"stateMutability":"view"},{"type":"function","name":"CRO","inputs":[],"outputs":[{"name":"","type":"IERC20","internalType":"contract IERC20"}],"stateMutability":"view"},{"type":"function","name":"CRV","inputs":[],"outputs":[{"name":"","type":"IERC20","internalType":"contract IERC20"}],"stateMutability":"view"},{"type":"function","name":"DAI","inputs":[],"outputs":[{"name":"","type":"IERC20","internalType":"contract IERC20"}],"stateMutability":"view"},{"type":"function","name":"ENJ","inputs":[],"outputs":[{"name":"","type":"IERC20","internalType":"contract IERC20"}],"stateMutability":"view"},{"type":"function","name":"FRAX","inputs":[],"outputs":[{"name":"","type":"IERC20","internalType":"contract IERC20"}],"stateMutability":"view"},{"type":"function","name":"FTM","inputs":[],"outputs":[{"name":"","type":"IERC20","internalType":"contract IERC20"}],"stateMutability":"view"},{"type":"function","name":"FXS","inputs":[],"outputs":[{"name":"","type":"IERC20","internalType":"contract IERC20"}],"stateMutability":"view"},{"type":"function","name":"GNO","inputs":[],"outputs":[{"name":"","type":"IERC20","internalType":"contract IERC20"}],"stateMutability":"view"},{"type":"function","name":"GRT","inputs":[],"outputs":[{"name":"","type":"IERC20","internalType":"contract IERC20"}],"stateMutability":"view"},{"type":"function","name":"GUSD","inputs":[],"outputs":[{"name":"","type":"IERC20","internalType":"contract IERC20"}],"stateMutability":"view"},{"type":"function","name":"HOT","inputs":[],"outputs":[{"name":"","type":"IERC20","internalType":"contract IERC20"}],"stateMutability":"view"},{"type":"function","name":"HT","inputs":[],"outputs":[{"name":"","type":"IERC20","internalType":"contract IERC20"}],"stateMutability":"view"},{"type":"function","name":"IOTX","inputs":[],"outputs":[{"name":"","type":"IERC20","internalType":"contract IERC20"}],"stateMutability":"view"},{"type":"function","name":"LDO","inputs":[],"outputs":[{"name":"","type":"IERC20","internalType":"contract IERC20"}],"stateMutability":"view"},{"type":"function","name":"LEO","inputs":[],"outputs":[{"name":"","type":"IERC20","internalType":"contract IERC20"}],"stateMutability":"view"},{"type":"function","name":"LINK","inputs":[],"outputs":[{"name":"","type":"IERC20","internalType":"contract IERC20"}],"stateMutability":"view"},{"type":"function","name":"LINKb","inputs":[],"outputs":[{"name":"","type":"IERC20","internalType":"contract IERC20"}],"stateMutability":"view"},{"type":"function","name":"LRC","inputs":[],"outputs":[{"name":"","type":"IERC20","internalType":"contract IERC20"}],"stateMutability":"view"},{"type":"function","name":"MANA","inputs":[],"outputs":[{"name":"","type":"IERC20","internalType":"contract IERC20"}],"stateMutability":"view"},{"type":"function","name":"MATIC","inputs":[],"outputs":[{"name":"","type":"IERC20","internalType":"contract IERC20"}],"stateMutability":"view"},{"type":"function","name":"MKR","inputs":[],"outputs":[{"name":"","type":"IERC20","internalType":"contract IERC20"}],"stateMutability":"view"},{"type":"function","name":"NATIVE_ASSET","inputs":[],"outputs":[{"name":"","type":"IERC20","internalType":"contract IERC20"}],"stateMutability":"view"},{"type":"function","name":"NEXO","inputs":[],"outputs":[{"name":"","type":"IERC20","internalType":"contract IERC20"}],"stateMutability":"view"},{"type":"function","name":"ONEINCH","inputs":[],"outputs":[{"name":"","type":"IERC20","internalType":"contract IERC20"}],"stateMutability":"view"},{"type":"function","name":"PAX","inputs":[],"outputs":[{"name":"","type":"IERC20","internalType":"contract IERC20"}],"stateMutability":"view"},{"type":"function","name":"PAXG","inputs":[],"outputs":[{"name":"","type":"IERC20","internalType":"contract IERC20"}],"stateMutability":"view"},{"type":"function","name":"POLY","inputs":[],"outputs":[{"name":"","type":"IERC20","internalType":"contract IERC20"}],"stateMutability":"view"},{"type":"function","name":"RPL","inputs":[],"outputs":[{"name":"","type":"IERC20","internalType":"contract IERC20"}],"stateMutability":"view"},{"type":"function","name":"SAND","inputs":[],"outputs":[{"name":"","type":"IERC20","internalType":"contract IERC20"}],"stateMutability":"view"},{"type":"function","name":"SNX","inputs":[],"outputs":[{"name":"","type":"IERC20","internalType":"contract IERC20"}],"stateMutability":"view"},{"type":"function","name":"SUSHI","inputs":[],"outputs":[{"name":"","type":"IERC20","internalType":"contract IERC20"}],"stateMutability":"view"},{"type":"function","name":"SXP","inputs":[],"outputs":[{"name":"","type":"IERC20","internalType":"contract IERC20"}],"stateMutability":"view"},{"type":"function","name":"THETA","inputs":[],"outputs":[{"name":"","type":"IERC20","internalType":"contract IERC20"}],"stateMutability":"view"},{"type":"function","name":"TUSD","inputs":[],"outputs":[{"name":"","type":"IERC20","internalType":"contract IERC20"}],"stateMutability":"view"},{"type":"function","name":"UNI","inputs":[],"outputs":[{"name":"","type":"IERC20","internalType":"contract IERC20"}],"stateMutability":"view"},{"type":"function","name":"USDC","inputs":[],"outputs":[{"name":"","type":"IERC20","internalType":"contract IERC20"}],"stateMutability":"view"},{"type":"function","name":"USDD","inputs":[],"outputs":[{"name":"","type":"IERC20","internalType":"contract IERC20"}],"stateMutability":"view"},{"type":"function","name":"USDT","inputs":[],"outputs":[{"name":"","type":"IERC20","internalType":"contract IERC20"}],"stateMutability":"view"},{"type":"function","name":"UST","inputs":[],"outputs":[{"name":"","type":"IERC20","internalType":"contract IERC20"}],"stateMutability":"view"},{"type":"function","name":"WBTC","inputs":[],"outputs":[{"name":"","type":"IERC20","internalType":"contract IERC20"}],"stateMutability":"view"},{"type":"function","name":"WOO","inputs":[],"outputs":[{"name":"","type":"IERC20","internalType":"contract IERC20"}],"stateMutability":"view"}],"bytecode":{"object":"0x61088d61003a600b82828239805160001a60731461002d57634e487b7160e01b600052600060045260246000fd5b30600052607381538281f3fe73000000000000000000000000000000000000000030146080604052600436106102fa5760003560e01c806377a7e77d116101a7578063bf53253b116100f3578063e4bbb4b0116100ac578063ecb4279511610086578063ecb42795146107eb578063f514bf4214610806578063f7375a8b14610821578063fc22290b1461083c57600080fd5b8063e4bbb4b01461079a578063e7ec9f30146107b5578063e8d6101e146107d057600080fd5b8063bf53253b1461070b578063c54e44eb14610713578063d88bba111461072e578063db09644d14610749578063dcbdadcc14610764578063e0bab4c41461077f57600080fd5b80639b903a1411610160578063b0e4556f1161013a578063b0e4556f1461069f578063b59f091e146106ba578063b71501bc146106d5578063beeadf16146106f057600080fd5b80639b903a141461064e5780639ca6da2e14610669578063ab560e101461068457600080fd5b806377a7e77d146105ac5780638323550b146105c757806389a30271146105e25780638dd0c181146105fd5780638e416c9314610618578063945c91421461063357600080fd5b806338e455951161026657806348ccda3c1161021f57806358f7f6d2116101f957806358f7f6d2146105405780635b7ab8911461055b5780636f8746b614610576578063721361ca1461059157600080fd5b806348ccda3c146104ef5780634dede3de1461050a578063541bcb761461052557600080fd5b806338e455951461044d5780633d31a4af146104685780633eeddcc214610483578063413729de1461049e57806345f19cff146104b9578063484f4ea9146104d457600080fd5b80631b6b6d23116102b85780631b6b6d23146103ab578063200ea222146103c65780632032afe4146103e157806331aed0c5146103fc57806332c8ffa31461041757806334c714631461043257600080fd5b8062bbe489146102ff57806308190cda146103365780630f0f64041461035157806315b550d61461036c57806319804680146103755780631b5d145d14610390575b600080fd5b61031a735fe2b58c013d7601147dcdd68c143a77499f553181565b6040516001600160a01b03909116815260200160405180910390f35b61031a73fad65eb62a97ff5ed91b23afd039956aaca6e93b81565b61031a737ec26842f195c852fa843bb9f6d8b583a274a15781565b61031a61101081565b61031a7353e0bca35ec356bd5dddfebbd1fc0fd03fabad3981565b61031a73b7b31a6bc18e48888545ce79e83e06003be7093081565b61031a73b0897686c545045afc77cf20ec7a532e3120e0f181565b61031a731a3acf6d19267e2d3e7f898f42803e90c921906281565b61031a73bbba073c31bf03b8acf7c28ef0738decf369568381565b61031a731b815d120b3ef02039ee11dc2d33de7aa4a8c60381565b61031a73ffa4d863c96e743a2e1513824ea006b8d0353c5781565b61031a73f6372cdb9c1d3674e83842e3800f2a62ac9f3c6681565b61031a735ffd62d3c3ee2e81c00a7b9079fb248e7df024a881565b61031a736f7c932e7684666c9fd1d44527765433e01ff61d81565b61031a7341b3966b4ff7b427969ddf5da3627d6aeae9a48e81565b61031a7384e1670f61347cdaed56dcc736fb990fbb47ddc181565b61031a736abb753c1893194de4a83c6e8b4eadfc105fd5f581565b61031a73dab529f40e671a1d4bf91361c21bf9f0c9712ab781565b61031a73d6df932a45c0f255f85145f286ea0b292b21c90b81565b61031a731bfd67037b42cf73acf2047067bd4f2c47d9bfd681565b61031a73b33eaad8d922b1083446dc23f610c2567fb5180f81565b61031a733ba4c387f786bfee076a58914f5bd38d668b42c381565b61031a733cef98bb43d732e2f285ee605a8158cde967d21981565b61031a736f3b3286fd86d8b47ec737ceb3d0d354cc657b3e81565b61031a73ada58df0f643d959c2a47c9d4d4c1a4defe3f11c81565b61031a73c9c1c1c20b3658f8787cc2fd702267791f224ce181565b61031a732e1ad108ff1d8c782fcbbb89aad783ac4958675681565b61031a732791bca1f2de4661ed88a30c99a7a9449aa8417481565b61031a73d85d1e945766fea5eda9103f918bd915fbca63e681565b61031a73f1938ce12400f9a761084e7a80d37e732a4da05681565b61031a73172370d5cd63279efa6d502dab29171933a610af81565b61031a737205705771547cf79201111b4bd8aaf29467b9ec81565b61031a73553d3d295e0f695b9228246232edf400ed3560b581565b61031a730b3f868e0be5597d5db7feb59e1cadbb0fdda50a81565b61031a7345c32fa6df82ead1e2ef74d17b76547eddfaff8981565b61031a732c89bbc92bd86f8075d1decc58c7f4e0107f286b81565b61031a738505b9d2254a7ae468c0e9dd10ccea3a837aef5c81565b61031a739a71012b13ca4d3d0cdc72a177df3ef03b0e76a381565b61031a600081565b61031a73c2132d05d31c914a87c6611c10748aeb04b58e8f81565b61031a73c3c7d422809852031b44ab29eec9f1eff2a5875681565b61031a739c2c5fd7b07e95ee044ddeba0e97a665f142394f81565b61031a730c51f415cf478f8d08c246a6c6ee180c5dc3a01281565b61031a738f3cf7ad23cd3cadbd9735aff958023239c6a06381565b61031a73cb059c5573646047d6d88dddb87b745c18161d3b81565b61031a73692597b009d13c4049a947cab2239b7d6517875f81565b61031a7350b728d8d964fd00c2d0aad81718b71311fef68a81565b61031a73a1c57f48f0deb89f569dfbe6e2b7f46d33606fd481565b61031a7306d02e9d62a13fc76bb229373fb3bbbd1101d2fc81565b61031a73c8a94a3d3d2dabc3c1caffffdca6a7543c3e3e6581565b61031a73b46e0ae620efd98516f49bb00263317096c114b28156fea2646970667358221220ffa8c06ddcad6abab8d9e77c18955bbeabfea088dbbd90ee6b159c8a118dea7f64736f6c63430008180033","linkReferences":{}},"methodIdentifiers":{"AAVE()":"48ccda3c","APE()":"1b5d145d","AVAX()":"b59f091e","BAL()":"beeadf16","BAT()":"5b7ab891","BNB()":"58f7f6d2","BUSD()":"484f4ea9","CEL()":"8dd0c181","CHZ()":"8e416c93","COMP()":"b71501bc","CRO()":"721361ca","CRV()":"945c9142","DAI()":"e0bab4c4","ENJ()":"0f0f6404","FRAX()":"b0e4556f","FTM()":"77a7e77d","FXS()":"200ea222","GNO()":"38e45595","GRT()":"00bbe489","GUSD()":"f7375a8b","HOT()":"dcbdadcc","HT()":"08190cda","IOTX()":"34c71463","LDO()":"d88bba11","LEO()":"f514bf42","LINK()":"1b6b6d23","LINKb()":"19804680","LRC()":"413729de","MANA()":"ecb42795","MATIC()":"15b550d6","MKR()":"3d31a4af","NATIVE_ASSET()":"bf53253b","NEXO()":"3eeddcc2","ONEINCH()":"db09644d","PAX()":"6f8746b6","PAXG()":"9ca6da2e","POLY()":"e4bbb4b0","RPL()":"9b903a14","SAND()":"2032afe4","SNX()":"e8d6101e","SUSHI()":"ab560e10","SXP()":"45f19cff","THETA()":"fc22290b","TUSD()":"8323550b","UNI()":"541bcb76","USDC()":"89a30271","USDD()":"32c8ffa3","USDT()":"c54e44eb","UST()":"e7ec9f30","WBTC()":"4dede3de","WOO()":"31aed0c5"},"id":2}